:100000000C942A000C94CC0C0C94FF0C0C94320D24
:100010000C9444130C9411130C9402120C9435128A
:100020000C9447000C9447000C948F0E0C945C0EBB
:100030000C9447000C9447000C9447000C94470024
:100040000C9447000C9447000C9447000C94470014
:100050000C94470011241FBECFE5D8E0DEBFCDBF12
:1000600010E0A0E6B0E0E8EFFBE302C005900D92DF
:10007000A038B107D9F710E0A0E8B0E001C01D92A8
:10008000A739B107E1F70E9435140C94FA1D0C94BE
:100090000000EF92FF920F931F937B018C0120E0F1
:1000A00030E040E05FE40E94490388238CF0C801FF
:1000B000B70120E030E040E05FE40E94C1010E940F
:1000C000A9039B01AC01205030404040504806C07D
:1000D000C801B7010E94A9039B01AC01B901CA0183
:1000E0001F910F91FF90EF900895A0E0B0E0EBE733
:1000F000F0E00C94C31DDC012B01FA019C919230BD
:1001000008F439C1EB018881823008F433C194309E
:1001100069F4843009F02FC111969C91119789815F
:10012000981709F428C1A0E6B0E025C1843009F48D
:1001300021C18230A9F4923009F01DC19A01AD01AC
:1001400088E0EA010990AE01E90109929E0181501F
:10015000C1F7E201898111969C918923818308C1AD
:10016000923009F407C112962D903C901397EB0141
:100170008A819B811496AD90BD90CD90DC901797AD
:10018000EC80FD800E811F819101281B390BB90184
:1001900037FF04C066277727621B730B6032710537
:1001A0000CF061C0121613066CF537014801062EDB
:1001B00004C096948794779467940A94D2F721E0C8
:1001C00030E040E050E004C0220F331F441F551FB1
:1001D0006A95D2F721503040404050402E213F21B7
:1001E00040235123211531054105510521F021E01E
:1001F00030E040E050E079018A01E628F72808293C
:1002000019293CC0232BD1F1260E371E350146019A
:10021000062E04C096948794779467940A94D2F734
:1002200021E030E040E050E004C0220F331F441FC3
:10023000551F6A95D2F721503040404050402A2146
:100240003B214C215D21211531054105510521F04E
:1002500021E030E040E050E059016A01A628B728CB
:10026000C828D9280BC0821593052CF01C01AA249C
:10027000BB24650103C0EE24FF24870111969C91E5
:10028000D20111968C91981709F445C0992339F041
:10029000A80197012A193B094C095D0906C0A6016E
:1002A00095012E193F09400B510B57FD08C01182D3
:1002B0003382228224833583468357831DC081E0A5
:1002C00081833382228288279927DC01821B930B4A
:1002D000A40BB50B84839583A683B7830DC0220F2F
:1002E000331F441F551F24833583468357838281E0
:1002F000938101979383828324813581468157813D
:10030000DA01C9010197A109B1098F5F9F4FAF4F72
:10031000BF4328F30BC0918333822282EA0CFB1C7B
:100320000C1D1D1DE482F5820683178383E0808304
:10033000248135814681578157FF1AC0C901AA27F8
:1003400097FDA095BA2F81709070A070B0705695EF
:10035000479537952795822B932BA42BB52B848318
:100360009583A683B7838281938101969383828349
:10037000DF0101C0D201CD01CDB7DEB7E2E10C94BF
:10038000DF1DA0E2B0E0E7ECF1E00C94CF1D698343
:100390007A838B839C832D833E834F835887E9E048
:1003A000EE2EF12CEC0EFD1ECE010196B7010E943F
:1003B000D2048E010F5E1F4FCE010596B8010E9438
:1003C000D2048A8991E089278A8BC701B801AE01DE
:1003D000475E5F4F0E9475000E94FD03A096E6E015
:1003E0000C94EB1DA0E2B0E0E8EFF1E00C94CF1D1F
:1003F00069837A838B839C832D833E834F835887C5
:10040000F9E0EF2EF12CEC0EFD1ECE010196B701A6
:100410000E94D2048E010F5E1F4FCE010596B801D7
:100420000E94D204C701B801AE01475E5F4F0E942F
:1004300075000E94FD03A096E6E00C94EB1DA0E27F
:10044000B0E0E5E2F2E00C94C31D69837A838B830C
:100450009C832D833E834F835887CE010196BE0136
:10046000675F7F4F0E94D204CE010596BE016F5E8A
:100470007F4F0E94D2049985923088F0898982301A
:10048000C8F0943019F4823051F404C0843029F457
:10049000923081F480E690E0C6C0923049F420E0CA
:1004A0009A858A89981321E02A87CE010996BBC0D4
:1004B000823049F420E09A858A89981321E02A8BBA
:1004C000CE014196B0C02D843E844F8458886D88FB
:1004D0007E888F88988CEE24FF248701AA24BB2471
:1004E000650140E050E060E070E0E0E0F0E0C10174
:1004F00081709070892BE9F0E60CF71C081D191D1E
:100500009A01AB012A0D3B1D4C1D5D1D80E090E062
:10051000A0E0B0E0E614F7040805190520F481E036
:1005200090E0A0E0B0E0BA01A901480F591F6A1F8E
:100530007B1FAA0CBB1CCC1CDD1C97FE08C081E0F5
:1005400090E0A0E0B0E0A82AB92ACA2ADB2A3196B6
:10055000E032F10549F0660C771C881C991C569412
:10056000479437942794C3CFFA85EA892B893C892D
:100570008B859C85280F391F2E5F3F4F17C0CA01FE
:1005800081709070892B61F016950795F794E79428
:1005900080E090E0A0E0B0E8E82AF92A0A2B1B2BC3
:1005A00076956795579547952F5F3F4F77FDE7CF36
:1005B0000CC0440F551F661F771F17FD4160EE0CDE
:1005C000FF1C001F111F21503040403090E05907A0
:1005D00090E0690790E4790760F32B8F3C8FDB0193
:1005E000CA018F779070A070B07080349105A1051A
:1005F000B10561F447FD0AC0E114F10401051105DC
:1006000029F0405C5F4F6F4F7F4F40781A8EFE1786
:1006100011F081E08A8F4D8F5E8F6F8F78A383E01A
:10062000898FCE0149960E94FD03A096E2E10C94C9
:10063000DF1DA8E1B0E0EFE1F3E00C94CF1D69838A
:100640007A838B839C832D833E834F83588789E0F5
:10065000E82EF12CEC0EFD1ECE010196B7010E9492
:10066000D2048E010F5E1F4FCE010596B8010E9485
:10067000D2048985823040F08989823028F0C70110
:10068000B8010E944A0501C08FEF6896E6E00C941D
:10069000EB1DA8E1B0E0EFE4F3E00C94CF1D69831B
:1006A0007A838B839C832D833E834F83588789E095
:1006B000E82EF12CEC0EFD1ECE010196B7010E9432
:1006C000D2048E010F5E1F4FCE010596B8010E9425
:1006D000D2048985823040F08989823028F0C701B0
:1006E000B8010E944A0501C08FEF6896E6E00C94BD
:1006F000EB1DA8E1B0E0EFE7F3E00C94CF1D6983B8
:100700007A838B839C832D833E834F83588789E034
:10071000E82EF12CEC0EFD1ECE010196B7010E94D1
:10072000D2048E010F5E1F4FCE010596B8010E94C4
:10073000D2048985823040F08989823028F0C7014F
:10074000B8010E944A0501C081E06896E6E00C9479
:10075000EB1DACE0B0E0EFEAF3E00C94D31D69834D
:100760007A838B839C83CE010196BE016B5F7F4FA2
:100770000E94D2048D81823061F1823050F1843048
:1007800021F48E81882351F12EC02F81388537FDC9
:1007900020C06E812F3131051CF06623F9F023C093
:1007A0008EE190E0821B930B29853A854B855C8511
:1007B00004C056954795379527958A95D2F76623B5
:1007C000B1F050954095309521953F4F4F4F5F4F79
:1007D0000EC020E030E040E050E009C02FEF3FEFD6
:1007E0004FEF5FE704C020E030E040E050E8B9019F
:1007F000CA012C96E2E00C94EF1DDF92EF92FF927B
:100800000F931F93FC01E480F58006811781D1804E
:100810008081823048F480E090E0A0E1B0E0E82AF6
:10082000F92A0A2B1B2BA5C0843009F49FC0823003
:1008300021F4EE24FF24870105C0E114F104010531
:10084000110519F4E0E0F0E096C0628173819FEF3A
:10085000623879070CF05BC022E83FEF261B370BAC
:100860002A3131052CF020E030E040E050E02AC091
:10087000B801A701022E04C0769567955795479554
:100880000A94D2F781E090E0A0E0B0E004C0880FC5
:10089000991FAA1FBB1F2A95D2F70197A109B10979
:1008A0008E219F21A023B1230097A105B10521F03E
:1008B00081E090E0A0E0B0E09A01AB01282B392B59
:1008C0004A2B5B2BDA01C9018F779070A070B07052
:1008D00080349105A105B10539F427FF09C0205CDA
:1008E0003F4F4F4F5F4F04C0215C3F4F4F4F5F4F13
:1008F000E0E0F0E02030A0E03A07A0E04A07A0E402
:100900005A0710F0E1E0F0E079018A0127C0603871
:10091000710564F5FB01E158FF4FD801C7018F77DE
:100920009070A070B07080349105A105B10539F4C4
:10093000E7FE0DC080E490E0A0E0B0E004C08FE3EB
:1009400090E0A0E0B0E0E80EF91E0A1F1B1F17FFA1
:1009500005C016950795F794E794319687E01695AC
:100960000795F794E7948A95D1F705C0EE24FF2404
:100970008701EFEFF0E06E2F679566276795902F60
:100980009F77D794DD24D7948E2F8695492F462BB9
:10099000582F5D29B701CA011F910F91FF90EF9069
:1009A000DF900895FC01DB01408151812281622F9B
:1009B0006F7770E0221F2227221F9381892F880FD3
:1009C000822B282F30E0991F9927991F11969C930D
:1009D000119721153105A9F54115510561057105DD
:1009E00011F482E037C082E89FEF13969C938E93B8
:1009F00012979A01AB0167E0220F331F441F551F66
:100A00006A95D1F783E08C930DC0220F331F441FEA
:100A1000551F12968D919C911397019713969C9355
:100A20008E931297203080E0380780E0480780E4FA
:100A3000580758F314962D933D934D935C93179755
:100A400008952F3F310579F4411551056105710570
:100A500019F484E08C93089564FF03C081E08C93C3
:100A600012C01C9210C02F57304013963C932E9307
:100A7000129783E08C9387E0440F551F661F771F02
:100A80008A95D1F7706414964D935D936D937C9322
:100A9000179708951F93DC01FB019C91923008F495
:100AA00047C08081823008F443C0943051F41196DD
:100AB0001C91843099F58181682F70E0611B710968
:100AC0003FC0843021F0923031F48230B9F181811D
:100AD000882389F12DC011961C9111978230F1F075
:100AE00081811817D9F412962D913C911397828128
:100AF00093818217930794F028173907BCF0149656
:100B00008D919D910D90BC91A02D248135814681C0
:100B10005781281739074A075B0718F4112341F05A
:100B20000AC082179307A407B50740F4112319F0F0
:100B300061E070E005C06FEF7FEF02C060E070E041
:100B4000CB011F910895DF93CF93CDB7DEB72F97D9
:100B50000FB6F894DEBF0FBECDBF8F8781E060E097
:100B600040E00E941C0A81E061E040E00E941C0A13
:100B700080E06F850E942D0B81E063E041E00E94E0
:100B80001C0A80E090E0A0E0B0E48B879C87AD87F2
:100B9000BE876B857C858D859E8520E030E04AEFA1
:100BA00054E40E941F02DC01CB018F839887A98740
:100BB000BA876F81788589859A8520E030E040E8A2
:100BC0005FE30E94790388232CF481E090E09E8308
:100BD0008D833FC06F81788589859A8520E03FEFBE
:100BE0004FE757E40E94190318164CF56B857C8576
:100BF0008D859E8520E030E040E251E40E941F0296
:100C0000DC01CB01BC01CD010E944900DC01CB011C
:100C10009E838D830FC088EC90E09C838B838B81B7
:100C20009C810197F1F79C838B838D819E81019735
:100C30009E838D838D819E81009769F714C06F819B
:100C4000788589859A850E944900DC01CB019E83C5
:100C50008D838D819E819A83898389819A81019771
:100C6000F1F79A83898381E063E040E00E941C0AE7
:100C70002F960FB6F894DEBF0FBECDBFCF91DF9198
:100C80000895DF93CF93CDB7DEB72F970FB6F894C3
:100C9000DEBF0FBECDBF8F8781E060E041E00E94E4
:100CA0001C0A81E061E040E00E941C0A80E06F8540
:100CB0000E942D0B81E063E041E00E941C0A80E06D
:100CC00090E0A0E0B0E48B879C87AD87BE876B8502
:100CD0007C858D859E8520E030E04AEF54E40E94BB
:100CE0001F02DC01CB018F839887A987BA876F81A8
:100CF000788589859A8520E030E040E85FE30E94AE
:100D0000790388232CF481E090E09E838D833FC09B
:100D10006F81788589859A8520E03FEF4FE757E41A
:100D20000E94190318164CF56B857C858D859E8570
:100D300020E030E040E251E40E941F02DC01CB01E0
:100D4000BC01CD010E944900DC01CB019E838D8353
:100D50000FC088EC90E09C838B838B819C810197F2
:100D6000F1F79C838B838D819E8101979E838D8378
:100D70008D819E81009769F714C06F817885898580
:100D80009A850E944900DC01CB019E838D838D8171
:100D90009E819A83898389819A810197F1F79A8349
:100DA000898381E063E040E00E941C0A2F960FB621
:100DB000F894DEBF0FBECDBFCF91DF910895DF93D2
:100DC000CF93CDB7DEB72E970FB6F894DEBF0FBE28
:100DD000CDBF80E090E0A0E2B2E48B879C87AD8736
:100DE000BE876B857C858D859E8520E030E04AEF4F
:100DF00054E40E941F02DC01CB018F839887A987EE
:100E0000BA876F81788589859A8520E030E040E84F
:100E10005FE30E94790388232CF481E090E09E83B5
:100E20008D833FC06F81788589859A8520E03FEF6B
:100E30004FE757E40E94190318164CF56B857C8523
:100E40008D859E8520E030E040E251E40E941F0243
:100E5000DC01CB01BC01CD010E944900DC01CB01CA
:100E60009E838D830FC088EC90E09C838B838B8165
:100E70009C810197F1F79C838B838D819E810197E3
:100E80009E838D838D819E81009769F714C06F8149
:100E9000788589859A850E944900DC01CB019E8373
:100EA0008D838D819E819A83898389819A8101971F
:100EB000F1F79A83898388E30E94A3058FE00E945B
:100EC000A30581E00E94A3052E960FB6F894DEBF1D
:100ED0000FBECDBFCF91DF910895DF93CF9300D0A8
:100EE0000F92CDB7DEB79B838A8319820EC08981AA
:100EF000282F30E08A819B81FC01E20FF31F808163
:100F00000E94410689818F5F89838981282F30E083
:100F10008A819B81FC01E20FF31F8081882339F7CE
:100F20000F900F900F90CF91DF910895DF93CF93A3
:100F300000D00F92CDB7DEB78A836B838A81882376
:100F400019F48B81898306C08A81813019F48B81E1
:100F5000805C8983898180580E94A3050F900F903F
:100F60000F90CF91DF910895DF93CF93CDB7DEB788
:100F700027970FB6F894DEBF0FBECDBF9C838B833F
:100F80006D834E832F831A828D81882F90E0880F86
:100F9000991F880F991F880F991F8A838A81805C07
:100FA0000E94A30519820EC08981282F30E08B8111
:100FB0009C81FC01E20FF31F80810E944106898120
:100FC0008F5F89838981883078F38E816F810E9459
:100FD00096078D810E94410627960FB6F894DEBFD2
:100FE0000FBECDBFCF91DF910895DF93CF9300D097
:100FF000CDB7DEB789836A8389816A8141E00E9427
:101000001C0A0F900F90CF91DF910895DF93CF933B
:1010100000D0CDB7DEB789836A8389816A8140E0D9
:101020000E941C0A0F900F90CF91DF910895DF93DB
:10103000CF9300D000D0CDB7DEB78A838A81282F26
:1010400030E03C832B838B819C818430910509F4B3
:101050004BC02B813C8125303105D4F48B819C81A0
:1010600081309105C1F12B813C81223031052CF476
:101070008B819C81009761F148C02B813C8122309B
:10108000310561F18B819C818330910551F13DC027
:101090002B813C812730310581F18B819C81883007
:1010A00091055CF42B813C812530310501F18B8168
:1010B0009C8186309105F1F028C02B813C8128303D
:1010C0003105F1F08B819C8189309105E1F01DC0E3
:1010D0008FE389831AC086E0898317C08BE58983F3
:1010E00014C08FE4898311C086E689830EC08DE623
:1010F00089830BC08DE7898308C087E0898305C099
:101100008FE7898302C08FE689838981982F909524
:1011100082E0692F0E942D0B0F900F900F900F907F
:10112000CF91DF910895DF93CF9300D000D00F923D
:10113000CDB7DEB78FEF8B831A825EC08A81882F8E
:1011400090E0FC01E459FF4F908182E0692F40E07C
:101150000E941C0A19823DC08981882F90E0FC0101
:10116000E859FF4F90819E012C5F3F4F82E0692F2D
:10117000A9010E946E0B8C81882341F58981482F3B
:1011800050E08A81282F30E0CA01880F991F880F0C
:10119000991F820F931FFC01E059FF4F80818B83C1
:1011A0000FC08981882F90E0FC01E859FF4F9081A2
:1011B0009E012C5F3F4F82E0692FA9010E946E0BB8
:1011C0008C81882371F38B818D831CC089818F5F13
:1011D00089838981843008F4BFCF8A81882F90E089
:1011E000FC01E459FF4F908182E0692F41E00E94A9
:1011F0001C0A8A818F5F8A838A81843008F49ECF9B
:101200008B818D838D810F900F900F900F900F9099
:10121000CF91DF910895DF93CF93CDB7DEB72897B5
:101220000FB6F894DEBF0FBECDBF8A836B834C83AD
:1012300019828C81882309F07BC08A81282F30E0B5
:1012400038872F838F8198858130910561F12F81B7
:101250003885223031052CF48F819885009769F00C
:1012600064C02F8138852230310599F18F819885AE
:101270008330910509F443C058C0AAE3B0E0EAE323
:10128000F0E08081482F8B81282F30E081E090E0D2
:10129000022E02C0880F991F0A94E2F780958423DA
:1012A0008C931982BFC0A7E3B0E0E7E3F0E0808150
:1012B000482F8B81282F30E081E090E0022E02C081
:1012C000880F991F0A94E2F7809584238C931982E2
:1012D000A9C0A4E3B0E0E4E3F0E08081482F8B8173
:1012E000282F30E081E090E0022E02C0880F991F85
:1012F0000A94E2F7809584238C93198293C0A1E32A
:10130000B0E0E1E3F0E08081482F8B81282F30E0CE
:1013100081E090E0022E02C0880F991F0A94E2F744
:10132000809584238C9319827DC081E089837AC063
:101330008C81813009F076C08A81282F30E03E838D
:101340002D838D819E818130910559F12D813E81C2
:10135000223031052CF48D819E81009769F060C0A8
:101360002D813E812230310589F18D819E8183302E
:10137000910509F440C054C0AAE3B0E0EAE3F0E00C
:101380008081482F8B81282F30E081E090E0022E71
:1013900002C0880F991F0A94E2F7842B8C9319825C
:1013A00041C0A7E3B0E0E7E3F0E08081482F8B8104
:1013B000282F30E081E090E0022E02C0880F991FB4
:1013C0000A94E2F7842B8C9319822CC0A4E3B0E03A
:1013D000E4E3F0E08081482F8B81282F30E081E02A
:1013E00090E0022E02C0880F991F0A94E2F7842B26
:1013F0008C93198217C0A1E3B0E0E1E3F0E08081B3
:10140000482F8B81282F30E081E090E0022E02C02F
:10141000880F991F0A94E2F7842B8C93198202C0DB
:1014200081E08983898128960FB6F894DEBF0FBECC
:10143000CDBFCF91DF910895DF93CF93CDB7DEB7C6
:1014400028970FB6F894DEBF0FBECDBF8A836B839B
:101450004C8319828C81882309F07BC08A81282FD4
:1014600030E038872F838F8198858130910561F135
:101470002F813885223031052CF48F819885009793
:1014800069F064C02F8138852230310599F18F8150
:1014900098858330910509F443C058C0ABE3B0E0B0
:1014A000EBE3F0E08081482F8B81282F30E081E052
:1014B00090E0022E02C0880F991F0A94E2F78095EF
:1014C00084238C931982BFC0A8E3B0E0E8E3F0E086
:1014D0008081482F8B81282F30E081E090E0022E20
:1014E00002C0880F991F0A94E2F7809584238C9399
:1014F0001982A9C0A5E3B0E0E5E3F0E08081482FC0
:101500008B81282F30E081E090E0022E02C0880F0E
:10151000991F0A94E2F7809584238C93198293C0D3
:10152000A2E3B0E0E2E3F0E08081482F8B81282F36
:1015300030E081E090E0022E02C0880F991F0A94EB
:10154000E2F7809584238C9319827DC081E08983A2
:101550007AC08C81813009F076C08A81282F30E0F2
:101560003E832D838D819E818130910559F12D819E
:101570003E81223031052CF48D819E81009769F0E7
:1015800060C02D813E812230310589F18D819E819F
:101590008330910509F440C054C0ABE3B0E0EBE305
:1015A000F0E08081482F8B81282F30E081E090E0AF
:1015B000022E02C0880F991F0A94E2F7842B8C93A5
:1015C000198241C0A8E3B0E0E8E3F0E08081482F51
:1015D0008B81282F30E081E090E0022E02C0880F3E
:1015E000991F0A94E2F7842B8C9319822CC0A5E3EF
:1015F000B0E0E5E3F0E08081482F8B81282F30E0D8
:1016000081E090E0022E02C0880F991F0A94E2F751
:10161000842B8C93198217C0A2E3B0E0E2E3F0E0E0
:101620008081482F8B81282F30E081E090E0022ECE
:1016300002C0880F991F0A94E2F7842B8C931982B9
:1016400002C081E08983898128960FB6F894DEBFB5
:101650000FBECDBFCF91DF910895DF93CF9300D020
:1016600000D0CDB7DEB789836A838981282F30E027
:101670003C832B838B819C8181309105D1F02B8120
:101680003C81223031052CF48B819C81009761F0E4
:101690001EC02B813C812230310581F08B819C81E1
:1016A0008330910581F013C0EBE3F0E08A81808301
:1016B0000EC0E8E3F0E08A81808309C0E5E3F0E052
:1016C0008A81808304C0E2E3F0E08A8180830F9006
:1016D0000F900F900F90CF91DF910895DF93CF93EC
:1016E000CDB7DEB727970FB6F894DEBF0FBECDBFDC
:1016F0008A836B835D834C8319828C819D810097E3
:1017000009F478C08B81883008F074C08A81282F52
:1017100030E03F832E834E815F814130510559F186
:101720008E819F818230910534F42E813F81211575
:10173000310569F05CC04E815F814230510579F11D
:101740008E819F818330910509F43DC050C0E9E34B
:10175000F0E08081282F30E08B81882F90E0A90174
:1017600002C0559547958A95E2F7CA018170EC81D0
:10177000FD81808341C0E6E3F0E08081282F30E0E6
:101780008B81882F90E0A90102C0559547958A95D5
:10179000E2F7CA018170EC81FD8180832DC0E3E313
:1017A000F0E08081282F30E08B81882F90E0A90124
:1017B00002C0559547958A95E2F7CA018170EC8180
:1017C000FD81808319C0E0E3F0E08081282F30E0C4
:1017D0008B81882F90E0A90102C0559547958A9585
:1017E000E2F7CA018170EC81FD81808305C081E050
:1017F000898302C081E0898327960FB6F894DEBF03
:101800000FBECDBFCF91DF910895DF93CF93CDB7BA
:10181000DEB7EAE3F0E08FEF8083E7E3F0E08FE507
:101820008083E4E3F0E08FEF8083E1E3F0E08FEF8B
:101830008083EBE3F0E01082E8E3F0E01082E5E380
:10184000F0E01082E2E3F0E01082CF91DF910895A2
:10185000DF93CF93CDB7DEB7A5E5B0E0E5E5F0E0E7
:1018600080818E7F8C93A5E5B0E0E5E5F0E0808196
:1018700082608C93ABE5B0E0EBE5F0E080818064C2
:101880008C93CF91DF910895DF93CF93CDB7DEB7DF
:10189000A5E5B0E0E5E5F0E080818B7F8C93A5E5E0
:1018A000B0E0E5E5F0E0808188608C93ABE5B0E0E6
:1018B000EBE5F0E0808180688C93CF91DF91089513
:1018C000DF93CF93CDB7DEB7A4E5B0E0E4E5F0E079
:1018D00080818F7B8C93ABE5B0E0EBE5F0E080811D
:1018E00080628C93CF91DF910895DF93CF9300D0E6
:1018F0000F92CDB7DEB79B838A8319828A819B8141
:10190000009739F08A819B819093810080938000B9
:1019100002C082E0898389810F900F900F90CF9150
:10192000DF910895DF93CF9300D00F92CDB7DEB74C
:101930009B838A8319828A819B81009739F08A81EF
:101940009B81909383008093820002C082E0898310
:1019500089810F900F900F90CF91DF910895DF93C1
:10196000CF9300D00F92CDB7DEB79B838A831982C5
:101970008A819B81009739F08A819B8190938500B1
:101980008093840002C082E0898389810F900F9048
:101990000F90CF91DF9108951F920F920FB60F9283
:1019A00011242F933F934F935F936F937F938F9364
:1019B0009F93AF93BF93EF93FF93DF93CF93CDB7F5
:1019C000DEB78091800090918100009729F0E0912E
:1019D0008000F09181000995CF91DF91FF91EF9107
:1019E000BF91AF919F918F917F916F915F914F9137
:1019F0003F912F910F900FBE0F901F9018951F923F
:101A00000F920FB60F9211242F933F934F935F9332
:101A10006F937F938F939F93AF93BF93EF93FF93B6
:101A2000DF93CF93CDB7DEB7809182009091830092
:101A3000009729F0E0918200F09183000995CF9101
:101A4000DF91FF91EF91BF91AF919F918F917F9126
:101A50006F915F914F913F912F910F900FBE0F901B
:101A60001F9018951F920F920FB60F9211242F936B
:101A70003F934F935F936F937F938F939F93AF9316
:101A8000BF93EF93FF93DF93CF93CDB7DEB78091F2
:101A9000840090918500009729F0E0918400F091F6
:101AA00085000995CF91DF91FF91EF91BF91AF91A3
:101AB0009F918F917F916F915F914F913F912F9166
:101AC0000F900FBE0F901F901895DF93CF93CDB757
:101AD000DEB7AFE5B0E0EFE5F0E0808180688C93A1
:101AE000CF91DF910895DF93CF93CDB7DEB7AFE508
:101AF000B0E0EFE5F0E080818F778C93CF91DF91BC
:101B00000895DF93CF93CDB7DEB7ADE2B0E0EDE25D
:101B1000F0E0808180628C93ADE2B0E0EDE2F0E035
:101B200080818F7E8C93ADE2B0E0EDE2F0E08081C9
:101B3000877F8C93ADE2B0E0EDE2F0E080818B7FB7
:101B40008C93ADE2B0E0EDE2F0E0808180648C93B4
:101B5000CF91DF910895DF93CF930F92CDB7DEB78A
:101B60008983EFE2F0E089818083EEE2F0E080811A
:101B70008823DCF7EFE2F0E080810F90CF91DF91D6
:101B80000895DF93CF93CDB7DEB7A3E5B0E0E3E5EB
:101B9000F0E080818F7B8C93A3E5B0E0E3E5F0E09B
:101BA000808188608C93A9E5B0E0E9E5F0E0808170
:101BB00082608C93A3E5B0E0E3E5F0E080818E7F66
:101BC0008C93A3E5B0E0E3E5F0E0808182608C9344
:101BD000A3E5B0E0E3E5F0E080818B7F8C93CF91CB
:101BE000DF910895DF93CF93CDB7DEB7A3E5B0E0E3
:101BF000E3E5F0E080818E7F8C93A3E5B0E0E3E540
:101C0000F0E080818D7F8C93A3E5B0E0E3E5F0E028
:101C100080818B7F8C93CF91DF910895DF93CF9359
:101C20000F92CDB7DEB78983ECE5F0E08981808340
:101C30000F90CF91DF910895DF93CF930F92CDB79F
:101C4000DEB78983E2E5F0E0898180830F90CF9150
:101C5000DF910895DF93CF930F92CDB7DEB78983DD
:101C6000ECE5F0E0898180830F90CF91DF910895BA
:101C7000DF93CF9300D0CDB7DEB79A838983898174
:101C80009A8190938700809386000F900F90CF9158
:101C9000DF910895DF93CF9300D0CDB7DEB79A835D
:101CA000898389819A8190938900809388000F901D
:101CB0000F90CF91DF9108951F920F920FB60F9260
:101CC00011242F933F934F935F936F937F938F9341
:101CD0009F93AF93BF93EF93FF93DF93CF93CDB7D2
:101CE000DEB78091860090918700009729F0E091FF
:101CF0008600F09187000995CF91DF91FF91EF91D8
:101D0000BF91AF919F918F917F916F915F914F9113
:101D10003F912F910F900FBE0F901F9018951F921B
:101D20000F920FB60F9211242F933F934F935F930F
:101D30006F937F938F939F93AF93BF93EF93FF9393
:101D4000DF93CF93CDB7DEB7809188009091890063
:101D5000009729F0E0918800F09189000995CF91D2
:101D6000DF91FF91EF91BF91AF919F918F917F9103
:101D70006F915F914F913F912F910F900FBE0F90F8
:101D80001F901895DF93CF93CDB7DEB729970FB685
:101D9000F894DEBF0FBECDBF89836A834B838981F0
:101DA000282F30E0398728878885998581309105EB
:101DB00079F1288539852230310509F446C08885B6
:101DC0009985009709F05DC0AFE4B0E0EFE4F0E082
:101DD00080818F7B8C93AFE4B0E0EFE4F0E0808112
:101DE0008F7E8C93AFE4B0E0EFE4F0E080818F77FA
:101DF0008C93AFE4B0E0EFE4F0E080818F7D8C93D2
:101E0000A9E5B0E0E9E5F0E0808180618C9339C01C
:101E1000AFE4B0E0EFE4F0E080818F7B8C93AFE43F
:101E2000B0E0EFE4F0E080818F7E8C93AFE4B0E02F
:101E3000EFE4F0E0808180688C93AFE4B0E0EFE401
:101E4000F0E0808180628C931CC0AFE4B0E0EFE4EE
:101E5000F0E080818F7B8C93AFE4B0E0EFE4F0E0C2
:101E600080818F7E8C93AFE4B0E0EFE4F0E080817E
:101E700080688C93AFE4B0E0EFE4F0E080818062B2
:101E80008C938A81282F30E03F832E838E819F811F
:101E900081309105B1F02E813F81223031052CF443
:101EA0008E819F81009751F17FC02E813F8122302A
:101EB000310509F45DC08E819F8183309105D9F190
:101EC00073C0AFE4B0E0EFE4F0E080818E7F8C93EC
:101ED000AFE4B0E0EFE4F0E080818D7F8C93AEE47E
:101EE000B0E0EEE4F0E0808188608C93AEE4B0E096
:101EF000EEE4F0E0808180618C9356C0AFE4B0E006
:101F0000EFE4F0E080818E7F8C93AFE4B0E0EFE40B
:101F1000F0E080818D7F8C93AEE4B0E0EEE4F0E001
:101F2000808188608C93AEE4B0E0EEE4F0E08081E4
:101F30008F7E8C9339C0AFE4B0E0EFE4F0E08081B5
:101F40008E7F8C93AFE4B0E0EFE4F0E080818260BC
:101F50008C93AEE4B0E0EEE4F0E0808188608C9396
:101F6000AEE4B0E0EEE4F0E0808180618C931CC0D0
:101F7000AFE4B0E0EFE4F0E0808181608C93AFE407
:101F8000B0E0EFE4F0E0808182608C93AEE4B0E0FA
:101F9000EEE4F0E0808188608C93AEE4B0E0EEE4A3
:101FA000F0E0808180618C938B81282F30E03D832D
:101FB0002C838C819D818230910509F448C02C814D
:101FC0003D812330310554F48C819D81009799F037
:101FD0002C813D812130310521F17AC08C819D8198
:101FE0008330910509F449C02C813D8124303105AD
:101FF00009F459C06DC0AEE4B0E0EEE4F0E08081D9
:1020000081608C93AEE4B0E0EEE4F0E080818D7FFF
:102010008C93AEE4B0E0EEE4F0E080818B7F8C93B3
:1020200057C0AEE4B0E0EEE4F0E080818E7F8C93A8
:10203000AEE4B0E0EEE4F0E0808182608C93AEE448
:10204000B0E0EEE4F0E080818B7F8C9341C0AEE4A1
:10205000B0E0EEE4F0E0808181608C93AEE4B0E02B
:10206000EEE4F0E0808182608C93AEE4B0E0EEE4D8
:10207000F0E080818B7F8C932BC0AEE4B0E0EEE487
:10208000F0E080818E7F8C93AEE4B0E0EEE4F0E08F
:1020900080818D7F8C93AEE4B0E0EEE4F0E080814F
:1020A00084608C9315C0AEE4B0E0EEE4F0E0808193
:1020B00081608C93AEE4B0E0EEE4F0E080818D7F4F
:1020C0008C93AEE4B0E0EEE4F0E0808184608C9329
:1020D00029960FB6F894DEBF0FBECDBFCF91DF912A
:1020E0000895DF93CF93CDB7DEB7AEE4B0E0EEE472
:1020F000F0E080818E7F8C93AEE4B0E0EEE4F0E01F
:1021000080818D7F8C93AEE4B0E0EEE4F0E08081DE
:102110008B7F8C93CF91DF910895DF93CF9300D085
:1021200000D00F92CDB7DEB79A8389836B838B8102
:10213000282F30E03D832C838C819D818130910557
:10214000A9F02C813D81223031052CF48C819D81B8
:10215000009799F026C02C813D8122303105D9F0BD
:102160008C819D818330910579F01BC0E6E4F0E01D
:1021700089819A819183808314C0EAE4F0E08981A7
:102180009A81918380830DC0E6E4F0E089819A8191
:102190009183808306C0EAE4F0E089819A8191838B
:1021A00080830F900F900F900F900F90CF91DF9141
:1021B0000895DF93CF9300D0CDB7DEB79A8389839C
:1021C000EAE4F0E089819A81918380830F900F90F7
:1021D000CF91DF910895DF93CF9300D0CDB7DEB7D5
:1021E0009A83898389819A8190938B0080938A0056
:1021F0000F900F90CF91DF910895DF93CF9300D090
:102200000F92CDB7DEB789838981282F30E03B83D9
:102210002A838A819B818230910509F448C02A81F2
:102220003B812330310554F48A819B81009799F0DA
:102230002A813B812130310521F17AC08A819B813D
:102240008330910509F449C02A813B81243031054E
:1022500009F459C06DC0AEE4B0E0EEE4F0E0808176
:1022600081608C93AEE4B0E0EEE4F0E080818D7F9D
:102270008C93AEE4B0E0EEE4F0E080818B7F8C9351
:1022800057C0AEE4B0E0EEE4F0E080818E7F8C9346
:10229000AEE4B0E0EEE4F0E0808182608C93AEE4E6
:1022A000B0E0EEE4F0E080818B7F8C9341C0AEE43F
:1022B000B0E0EEE4F0E0808181608C93AEE4B0E0C9
:1022C000EEE4F0E0808182608C93AEE4B0E0EEE476
:1022D000F0E080818B7F8C932BC0AEE4B0E0EEE425
:1022E000F0E080818E7F8C93AEE4B0E0EEE4F0E02D
:1022F00080818D7F8C93AEE4B0E0EEE4F0E08081ED
:1023000084608C9315C0AEE4B0E0EEE4F0E0808130
:1023100081608C93AEE4B0E0EEE4F0E080818D7FEC
:102320008C93AEE4B0E0EEE4F0E0808184608C93C6
:102330000F900F900F90CF91DF910895DF93CF937F
:1023400000D00F92CDB7DEB789838981282F30E086
:102350003B832A838A819B818130910569F02A81A0
:102360003B812230310579F4AEE4B0E0EEE4F0E0F8
:10237000808180648C9307C0AEE4B0E0EEE4F0E0CE
:1023800080818F7B8C930F900F900F90CF91DF9176
:102390000895DF93CF93CDB7DEB7A9E5B0E0E9E5C7
:1023A000F0E0808180628C93CF91DF910895DF937C
:1023B000CF93CDB7DEB7A9E5B0E0E9E5F0E08081E5
:1023C0008F7D8C93CF91DF910895DF93CF93CDB71D
:1023D000DEB7E6E4F0E080819181CF91DF9108954E
:1023E000DF93CF9300D0CDB7DEB79A8389838981FD
:1023F0009A8190938D0080938C000F900F90CF91D5
:10240000DF9108951F920F920FB60F9211242F9310
:102410003F934F935F936F937F938F939F93AF936C
:10242000BF93EF93FF93DF93CF93CDB7DEB7809148
:102430008C0090918D00009729F0E0918C00F09134
:102440008D000995CF91DF91FF91EF91BF91AF91F1
:102450009F918F917F916F915F914F913F912F91BC
:102460000F900FBE0F901F9018951F920F920FB6EE
:102470000F9211242F933F934F935F936F937F930A
:102480008F939F93AF93BF93EF93FF93DF93CF937C
:10249000CDB7DEB780918A0090918B00009729F02C
:1024A000E0918A00F0918B000995CF91DF91FF9127
:1024B000EF91BF91AF919F918F917F916F915F91BC
:1024C0004F913F912F910F900FBE0F901F90189535
:1024D000DF93CF93CDB7DEB7A5E4B0E0E5E4F0E05D
:1024E00080818F7B8C93A5E4B0E0E5E4F0E080810F
:1024F00088608C93A5E4B0E0E5E4F0E080818F7E15
:102500008C93A5E4B0E0E5E4F0E080818F7D8C93CE
:10251000A9E5B0E0E9E5F0E0808180688C93A5E46E
:10252000B0E0E5E4F0E080818E7F8C93A5E4B0E03C
:10253000E5E4F0E0808182608C93A5E4B0E0E5E41E
:10254000F0E080818B7F8C93CF91DF910895DF93B2
:10255000CF93CDB7DEB7A5E4B0E0E5E4F0E080814D
:102560008E7F8C93A5E4B0E0E5E4F0E080818D7F80
:102570008C93A5E4B0E0E5E4F0E080818B7F8C9360
:10258000CF91DF910895DF93CF930F92CDB7DEB750
:102590008983E4E4F0E0898180830F90CF91DF911B
:1025A0000895DF93CF930F92CDB7DEB78983E3E42D
:1025B000F0E0898180830F90CF91DF910895DF93C0
:1025C000CF930F92CDB7DEB78983E3E4F0E0898142
:1025D00080830F90CF91DF910895DF93CF9300D048
:1025E000CDB7DEB79A83898389819A8190938F00D2
:1025F00080938E000F900F90CF91DF910895DF931D
:10260000CF9300D0CDB7DEB79A83898389819A8131
:1026100090939100809390000F900F90CF91DF9155
:1026200008951F920F920FB60F9211242F933F938C
:102630004F935F936F937F938F939F93AF93BF93CA
:10264000EF93FF93DF93CF93CDB7DEB780918E00EA
:1026500090918F00009729F0E0918E00F0918F000B
:102660000995CF91DF91FF91EF91BF91AF919F912C
:102670008F917F916F915F914F913F912F910F902B
:102680000FBE0F901F9018951F920F920FB60F92CA
:1026900011242F933F934F935F936F937F938F9367
:1026A0009F93AF93BF93EF93FF93DF93CF93CDB7F8
:1026B000DEB78091900090919100009729F0E09111
:1026C0009000F09191000995CF91DF91FF91EF91EA
:1026D000BF91AF919F918F917F916F915F914F913A
:1026E0003F912F910F900FBE0F901F901895DF9381
:1026F000CF9300D0CDB7DEB79A838983E6E4F0E0CC
:1027000089819A81918380830F900F90CF91DF917F
:102710000895DF93CF93CDB7DEB7AFE4B0E0EFE439
:10272000F0E080818F7B8C93AFE4B0E0EFE4F0E0E9
:10273000808180688C93AFE4B0E0EFE4F0E08081CA
:102740008E7F8C93AFE4B0E0EFE4F0E080818260B4
:102750008C93AEE4B0E0EEE4F0E0808188608C938E
:10276000AEE4B0E0EEE4F0E0808180618C93AEE412
:10277000B0E0EEE4F0E080818E7F8C93AEE4B0E0D8
:10278000EEE4F0E0808182608C93AEE4B0E0EEE4B1
:10279000F0E080818B7F8C93CF91DF910895DF9360
:1027A000CF9300D0CDB7DEB79A838983EAE4F0E017
:1027B00089819A81918380830F900F90CF91DF91CF
:1027C0000895DF93CF93CDB7DEB7ADE2B0E0EDE291
:1027D000F0E0808180618C93ADE2B0E0EDE2F0E06A
:1027E000808181608C93ADE2B0E0EDE2F0E0808129
:1027F0008D7F8C93AEE2B0E0EEE2F0E080818E7FE0
:102800008C93ADE2B0E0EDE2F0E0808180648C93E7
:10281000CF91DF910895DF93CF93CDB7DEB7ADE2CF
:10282000B0E0EDE2F0E080818F7E8C93ADE2B0E02D
:10283000EDE2F0E0808180648C93CF91DF91089588
:10284000DF93CF9300D0CDB7DEB78983EFE2F0E01E
:1028500089818083EEE2F0E08081EFE2F0E0808128
:102860000F900F90CF91DF9108950F931F93DF93F7
:10287000CF93CDB7DEB7C25BD0400FB6F894DEBFC2
:102880000FBECDBF0E94050C0E940B140E9489133D
:102890000E94650D82E30E942014882F90E0A0E042
:1028A000B0E08093930090939400A0939500B09330
:1028B00096008091930090919400A0919500B09122
:1028C000960082339105A105B10508F4C3C080913B
:1028D000930090919400A0919500B0919600982F4C
:1028E000909580E0692F0E942D0BFE01EB55FF4F64
:1028F00080E090E0A0EEB0E480839183A283B38374
:102900008E010F551F4FFE01EB55FF4F6081718106
:102910008281938120E030E04AEF54E40E941F025C
:10292000DC01CB01F80180839183A283B383FE0194
:10293000EF55FF4F608171818281938120E030E00B
:1029400040E85FE30E947903882344F4FE01E156E6
:10295000FF4F81E090E09183808364C0FE01EF55DA
:10296000FF4F608171818281938120E03FEF4FE7CB
:1029700057E40E94190318160CF043C0FE01EB55F2
:10298000FF4F608171818281938120E030E040E2DD
:1029900051E40E941F02DC01CB018E0101561F4F42
:1029A000BC01CD010E944900DC01CB01F8019183FB
:1029B00080831FC0FE01E356FF4F88EC90E09183B7
:1029C0008083FE01E356FF4F808191810197F1F7EB
:1029D000FE01E356FF4F91838083DE01A156BF4F76
:1029E000FE01E156FF4F80819181019711969C93E2
:1029F0008E93FE01E156FF4F808191810097D1F6C1
:102A000067C18E0101561F4FFE01EF55FF4F6081D8
:102A10007181828193810E944900DC01CB01F80120
:102A200091838083DE01A556BF4FFE01E156FF4F23
:102A30008081918111969C938E93FE01E556FF4F04
:102A4000808191810197F1F7FE01E556FF4F918357
:102A500080833EC18091930090919400A091950055
:102A6000B091960082339105A105B10508F030C1FF
:102A7000FE01E956FF4F80E090E0A0EAB0E48083D9
:102A80009183A283B3838E010D561F4FFE01E95639
:102A9000FF4F608171818281938120E030E04AEFB5
:102AA00054E40E941F02DC01CB01F8018083918372
:102AB000A283B383FE01ED56FF4F60817181828155
:102AC000938120E030E040E85FE30E9479038823AF
:102AD00044F4FE01EF56FF4F81E090E09183808344
:102AE00064C0FE01ED56FF4F608171818281938148
:102AF00020E03FEF4FE757E40E94190318160CF04F
:102B000043C0FE01E956FF4F60817181828193814C
:102B100020E030E040E251E40E941F02DC01CB01E2
:102B20008E010F561F4FBC01CD010E944900DC01F0
:102B3000CB01F801918380831FC0FE01E157FF4F55
:102B400088EC90E091838083FE01E157FF4F808104
:102B500091810197F1F7FE01E157FF4F9183808347
:102B6000DE01AF56BF4FFE01EF56FF4F80819181CE
:102B7000019711969C938E93FE01EF56FF4F808133
:102B800091810097D1F627C08E010F561F4FFE018D
:102B9000ED56FF4F60817181828193810E944900CF
:102BA000DC01CB01F80191838083DE01A357BF4F85
:102BB000FE01EF56FF4F808191818D939C93FE0122
:102BC000E357FF4F808191810197F1F7FE01E357B1
:102BD000FF4F9183808383E060E00E94F50780913E
:102BE000930090919400A0919500B09196002AE0F6
:102BF00030E040E050E0BC01CD010E94A11DDC01AD
:102C0000CB01FE01E555FF4F9183808380919300B6
:102C100090919400A0919500B09196002AE030E048
:102C200040E050E0BC01CD010E94A11DDA01C901C4
:102C3000FE01E755FF4F91838083809192008823A6
:102C400091F483E060E00E94F50783E061E00E9478
:102C50000608FE01E555FF4F80810E94170881E0BC
:102C60008093920010C083E060E00E94060883E039
:102C700061E00E94F507FE01E755FF4F80810E9449
:102C80001708109292008091930090919400A09167
:102C90009500B091960084329105A105B10598F098
:102CA0008091930090919400A0919500B09196002E
:102CB00088329105A105B10530F483E067E041E079
:102CC0000E941C0A05C083E067E040E00E941C0AE5
:102CD0008091930090919400A0919500B0919600FE
:102CE000C155DF4F88839983AA83BB83CF5AD040D5
:102CF000C155DF4F88819981AA81BB81CF5AD040CD
:102D000083339105A105B10509F4CEC1C155DF4F4B
:102D100088819981AA81BB81CF5AD04084339105A3
:102D2000A105B105E0F4C155DF4F88819981AA81E1
:102D3000BB81CF5AD04081339105A105B105D1F1B6
:102D4000C155DF4F88819981AA81BB81CF5AD0407C
:102D500082339105A105B10509F4E9C09BCDC155A8
:102D6000DF4F88819981AA81BB81CF5AD0408533BA
:102D70009105A105B10509F4A3C1C155DF4F8881B3
:102D80009981AA81BB81CF5AD04085339105A10595
:102D9000B10508F48FC1C155DF4F88819981AA819F
:102DA000BB81CF5AD04086339105A105B10509F406
:102DB00092C470CD80E29EE40E94771384EC99E087
:102DC0000E94CF13FE01E757FF4F80E090E0A0E2A2
:102DD000B1E480839183A283B3838E010B571F4F8D
:102DE000FE01E757FF4F608171818281938120E06E
:102DF00030E04AEF54E40E941F02DC01CB01F801ED
:102E000080839183A283B383FE01EB57FF4F6081E0
:102E100071818281938120E030E040E85FE30E948D
:102E20007903882344F4FE01ED57FF4F81E090E0E1
:102E30009183808364C0FE01EB57FF4F60817181F5
:102E40008281938120E03FEF4FE757E40E9419030E
:102E500018160CF043C0FE01E757FF4F60817181E7
:102E60008281938120E030E040E251E40E941F0221
:102E7000DC01CB018E010D571F4FBC01CD010E941B
:102E80004900DC01CB01F801918380831FC0FE0162
:102E9000EF57FF4F88EC90E091838083FE01EF575E
:102EA000FF4F808191810197F1F7FE01EF57FF4FAE
:102EB00091838083DE01AD57BF4FFE01ED57FF4F79
:102EC00080819181019711969C938E93FE01ED571D
:102ED000FF4F808191810097D1F6DCCC8E010D5798
:102EE0001F4FFE01EB57FF4F6081718182819381FB
:102EF0000E944900DC01CB01F80191838083DE014F
:102F0000A158BF4FFE01ED57FF4F8081918111966F
:102F10009C938E93FE01E158FF4F80819181019730
:102F2000F1F7FE01E158FF4F91838083B3CC80E23B
:102F30009EE40E94771384EF91E00E94CF13FE017C
:102F4000E558FF4F80E090E0A0E2B1E480839183F8
:102F5000A283B3838E0109581F4FFE01E558FF4F2E
:102F6000608171818281938120E030E04AEF54E4F6
:102F70000E941F02DC01CB01F80180839183A283B0
:102F8000B383FE01E958FF4F608171818281938193
:102F900020E030E040E85FE30E947903882344F4B6
:102FA000FE01EB58FF4F81E090E09183808364C085
:102FB000FE01E958FF4F608171818281938120E099
:102FC0003FEF4FE757E40E94190318160CF043C077
:102FD000FE01E558FF4F608171818281938120E07D
:102FE00030E040E251E40E941F02DC01CB018E017F
:102FF0000B581F4FBC01CD010E944900DC01CB01E1
:10300000F801918380831FC0FE01ED58FF4F88ECCB
:1030100090E091838083FE01ED58FF4F8081918184
:103020000197F1F7FE01ED58FF4F91838083DE0198
:10303000AB58BF4FFE01EB58FF4F80819181019744
:1030400011969C938E93FE01EB58FF4F80819181E6
:103050000097D1F61FCC8E010B581F4FFE01E95887
:10306000FF4F60817181828193810E944900DC0160
:10307000CB01F80191838083DE01AF58BF4FFE0181
:10308000EB58FF4F8081918111969C938E93FE01A6
:10309000EF58FF4F808191810197F1F7FE01EF58C2
:1030A000FF4F91838083F6CB83E067E041E00E948D
:1030B0001C0AF0CB83E067E040E00E941C0AEACBE8
:1030C000FE01E355FF4F11821082FAC281E060E0F9
:1030D00041E00E941C0A81E061E040E00E941C0A7D
:1030E00081E062E040E00E941C0A81E063E040E091
:1030F0000E941C0AFE01E359FF4F80E090E0A0E02F
:10310000B0E480839183A283B3838E0107591F4F5C
:10311000FE01E359FF4F608171818281938120E03C
:1031200030E04AEF54E40E941F02DC01CB01F801B9
:1031300080839183A283B383FE01E759FF4F6081AF
:1031400071818281938120E030E040E85FE30E945A
:103150007903882344F4FE01E959FF4F81E090E0B0
:103160009183808364C0FE01E759FF4F60817181C4
:103170008281938120E03FEF4FE757E40E941903DB
:1031800018160CF043C0FE01E359FF4F60817181B6
:103190008281938120E030E040E251E40E941F02EE
:1031A000DC01CB018E0109591F4FBC01CD010E94EA
:1031B0004900DC01CB01F801918380831FC0FE012F
:1031C000EB59FF4F88EC90E091838083FE01EB592F
:1031D000FF4F808191810197F1F7FE01EB59FF4F7D
:1031E00091838083DE01A959BF4FFE01E959FF4F4A
:1031F00080819181019711969C938E93FE01E959EC
:10320000FF4F808191810097D1F627C08E01095927
:103210001F4FFE01E759FF4F6081718182819381C9
:103220000E944900DC01CB01F80191838083DE011B
:10323000AD59BF4FFE01E959FF4F808191818D93B8
:103240009C93FE01ED59FF4F808191810197F1F729
:10325000FE01ED59FF4F9183808381E060E040E003
:103260000E941C0A81E061E041E00E941C0A81E0AA
:1032700062E040E00E941C0A81E063E040E00E94BE
:103280001C0AFE01E15AFF4F80E090E0A0E0B0E4AC
:1032900080839183A283B3838E01055A1F4FFE0161
:1032A000E15AFF4F608171818281938120E030E09B
:1032B0004AEF54E40E941F02DC01CB01F801808335
:1032C0009183A283B383FE01E55AFF4F6081718130
:1032D0008281938120E030E040E85FE30E9479033F
:1032E000882344F4FE01E75AFF4F81E090E0918388
:1032F000808364C0FE01E55AFF4F60817181828145
:10330000938120E03FEF4FE757E40E94190318161E
:103310000CF043C0FE01E15AFF4F60817181828150
:10332000938120E030E040E251E40E941F02DC0182
:10333000CB018E01075A1F4FBC01CD010E944900ED
:10334000DC01CB01F801918380831FC0FE01E95AA3
:10335000FF4F88EC90E091838083FE01E95AFF4F94
:10336000808191810197F1F7FE01E95AFF4F918326
:103370008083DE01A75ABF4FFE01E75AFF4F8081CD
:103380009181019711969C938E93FE01E75AFF4F0E
:10339000808191810097D1F627C08E01075A1F4F77
:1033A000FE01E55AFF4F60817181828193810E9405
:1033B0004900DC01CB01F80191838083DE01AB5A27
:1033C000BF4FFE01E75AFF4F808191818D939C93FF
:1033D000FE01EB5AFF4F808191810197F1F7FE01C9
:1033E000EB5AFF4F9183808381E060E040E00E94D0
:1033F0001C0A81E061E040E00E941C0A81E062E07A
:1034000041E00E941C0A81E063E040E00E941C0A47
:10341000FE01EF5AFF4F80E090E0A0E0B0E480832F
:103420009183A283B3838E01035B1F4FFE01EF5A8A
:10343000FF4F608171818281938120E030E04AEF0B
:1034400054E40E941F02DC01CB01F80180839183C8
:10345000A283B383FE01E35BFF4F608171818281B0
:10346000938120E030E040E85FE30E947903882305
:1034700044F4FE01E55BFF4F81E090E0918380839F
:1034800064C0FE01E35BFF4F6081718182819381A3
:1034900020E03FEF4FE757E40E94190318160CF0A5
:1034A00043C0FE01EF5AFF4F608171818281938199
:1034B00020E030E040E251E40E941F02DC01CB0139
:1034C0008E01055B1F4FBC01CD010E944900DC014C
:1034D000CB01F801918380831FC0FE01E75BFF4FA2
:1034E00088EC90E091838083FE01E75BFF4F808151
:1034F00091810197F1F7FE01E75BFF4F9183808394
:10350000DE01A55BBF4FFE01E55BFF4F808191812E
:10351000019711969C938E93FE01E55BFF4F80818E
:1035200091810097D1F627C08E01055B1F4FFE01E8
:10353000E35BFF4F60817181828193810E9449002A
:10354000DC01CB01F80191838083DE01A95BBF4FD1
:10355000FE01E55BFF4F808191818D939C93FE017D
:10356000E95BFF4F808191810197F1F7FE01E95BF3
:10357000FF4F9183808381E060E040E00E941C0A5D
:1035800081E061E040E00E941C0A81E062E040E0EE
:103590000E941C0A81E063E041E00E941C0AFE01D7
:1035A000ED5BFF4F80E090E0A0E0B0E4808391838A
:1035B000A283B3838E01015C1F4FFE01ED5BFF4FC1
:1035C000608171818281938120E030E04AEF54E490
:1035D0000E941F02DC01CB01F80180839183A2834A
:1035E000B383FE01FF96608171818281938120E027
:1035F00030E040E85FE30E94790388232CF481E007
:1036000090E09EAF8DAF46C0FE01FF966081718154
:103610008281938120E03FEF4FE757E40E94190336
:10362000181664F5FE01ED5BFF4F608171818281A8
:10363000938120E030E040E251E40E941F02DC016F
:10364000CB01BC01CD010E944900DC01CB019EAF42
:103650008DAF0FC088EC90E09CAF8BAF8BAD9CAD75
:103660000197F1F79CAF8BAF8DAD9EAD01979EAFEB
:103670008DAF8DAD9EAD009769F716C0FE01FF9628
:1036800060817181828193810E944900DC01CB01BC
:103690009EAF8DAF8DAD9EAD9AAF89AF89AD9AAD1E
:1036A0000197F1F79AAF89AFDE01A355BF4FFE0135
:1036B000E355FF4F80819181019611969C938E93E3
:1036C000FE01E355FF4F80819181F1E082389F0731
:1036D00008F4FCCCDFC8FE01E355FF4F11821082D5
:1036E00024C281E060E040E00E941C0A81E061E0C9
:1036F00040E00E941C0A81E062E040E00E941C0A57
:1037000081E063E041E00E941C0A80E090E0A0E0DC
:10371000B0E48DAB9EABAFABB8AF6DA97EA98FA95E
:1037200098AD20E030E04AEF54E40E941F02DC0133
:10373000CB0189AB9AABABABBCAB69A97AA98BA91E
:103740009CA920E030E040E85FE30E9479038823F1
:103750002CF481E090E098AB8FA73FC069A97AA9CB
:103760008BA99CA920E03FEF4FE757E40E94190383
:1037700018164CF56DA97EA98FA998AD20E030E010
:1037800040E251E40E941F02DC01CB01BC01CD01EB
:103790000E944900DC01CB0198AB8FA70FC088ECD9
:1037A00090E09EA78DA78DA59EA50197F1F79EA7F6
:1037B0008DA78FA598A9019798AB8FA78FA598A9DA
:1037C000009769F714C069A97AA98BA99CA90E94DE
:1037D0004900DC01CB0198AB8FA78FA598A99CA7C6
:1037E0008BA78BA59CA50197F1F79CA78BA781E0E0
:1037F00060E040E00E941C0A81E061E040E00E943D
:103800001C0A81E062E041E00E941C0A81E063E062
:1038100040E00E941C0A80E090E0A0E0B0E48FA3AA
:1038200098A7A9A7BAA76FA178A589A59AA520E00E
:1038300030E04AEF54E40E941F02DC01CB018BA36D
:103840009CA3ADA3BEA36BA17CA18DA19EA120E0F2
:1038500030E040E85FE30E94790388232CF481E0A4
:1038600090E09AA389A33FC06BA17CA18DA19EA1EA
:1038700020E03FEF4FE757E40E94190318164CF57C
:103880006FA178A589A59AA520E030E040E251E437
:103890000E941F02DC01CB01BC01CD010E94490046
:1038A000DC01CB019AA389A30FC088EC90E098A318
:1038B0008F8F8F8D98A10197F1F798A38F8F89A192
:1038C0009AA101979AA389A389A19AA1009769F760
:1038D00014C06BA17CA18DA19EA10E944900DC01B6
:1038E000CB019AA389A389A19AA19E8F8D8F8D8DDB
:1038F0009E8D0197F1F79E8F8D8F81E060E040E013
:103900000E941C0A81E061E041E00E941C0A81E003
:1039100062E040E00E941C0A81E063E040E00E9417
:103920001C0A80E090E0A0E0B0E4898F9A8FAB8F12
:10393000BC8F698D7A8D8B8D9C8D20E030E04AEFB5
:1039400054E40E941F02DC01CB018D8B9E8BAF8B58
:10395000B88F6D897E898F89988D20E030E040E8AE
:103960005FE30E94790388232CF481E090E09C8B34
:103970008B8B3FC06D897E898F89988D20E03FEFCA
:103980004FE757E40E94190318164CF5698D7A8D9C
:103990008B8D9C8D20E030E040E251E40E941F02BC
:1039A000DC01CB01BC01CD010E944900DC01CB014F
:1039B0009C8B8B8B0FC088EC90E09A8B898B8989CC
:1039C0009A890197F1F79A8B898B8B899C8901974A
:1039D0009C8B8B8B8B899C89009769F714C06D89B0
:1039E0007E898F89988D0E944900DC01CB019C8BD8
:1039F0008B8B8B899C89988B8F878F859889019772
:103A0000F1F7988B8F8781E060E041E00E941C0A0B
:103A100081E061E040E00E941C0A81E062E040E059
:103A20000E941C0A81E063E040E00E941C0A80E0E2
:103A300090E0A0E0B0E48B879C87AD87BE876B8564
:103A40007C858D859E8520E030E04AEF54E40E941D
:103A50001F02DC01CB018F839887A987BA876F810A
:103A6000788589859A8520E030E040E85FE30E9410
:103A7000790388232CF481E090E09E838D833FC0FE
:103A80006F81788589859A8520E03FEF4FE757E47D
:103A90000E94190318164CF56B857C858D859E85D3
:103AA00020E030E040E251E40E941F02DC01CB0143
:103AB000BC01CD010E944900DC01CB019E838D83B6
:103AC0000FC088EC90E09C838B838B819C81019755
:103AD000F1F79C838B838D819E8101979E838D83DB
:103AE0008D819E81009769F714C06F8178858985E3
:103AF0009A850E944900DC01CB019E838D838D81D4
:103B00009E819A83898389819A810197F1F79A83AB
:103B10008983DE01A355BF4FFE01E355FF4F80812E
:103B20009181019611969C938E93FE01E355FF4F70
:103B30008081918121E08238920708F4D2CD0C94E3
:103B40004A14A1E21A2EAA1BBB1BFD010DC0AA1F1D
:103B5000BB1FEE1FFF1FA217B307E407F50720F0F6
:103B6000A21BB30BE40BF50B661F771F881F991F71
:103B70001A9469F760957095809590959B01AC01BA
:103B8000BD01CF0108952F923F924F925F926F92A5
:103B90007F928F929F92AF92BF92CF92DF92EF92DD
:103BA000FF920F931F93CF93DF93CDB7DEB7CA1B5E
:103BB000DB0B0FB6F894DEBF0FBECDBF09942A8889
:103BC000398848885F846E847D848C849B84AA8431
:103BD000B984C884DF80EE80FD800C811B81AA81BE
:103BE000B981CE0FD11D0FB6F894DEBF0FBECDBF89
:083BF000ED010895F894FFCFE8
:103BF80000000000000000000001020304050607A1
:103C08003738392F3435362A3132332D4E303D2B63
:00000001FF
