:100000000C942A000C9447000C9447000C94470071
:100010000C9447000C9447000C9447000C94470044
:100020000C9447000C9447000C942D0E0C94FA0D80
:100030000C9447000C9447000C9447000C94470024
:100040000C9447000C9447000C9447000C94470014
:100050000C94470011241FBECFE5D8E0DEBFCDBF12
:1000600010E0A0E6B0E0E6E1FEE202C005900D92ED
:10007000A238B107D9F710E0A2E8B0E001C01D92A4
:10008000A638B107E1F70E94EE110C9409170C9401
:100090000000EF92FF920F931F937B018C0120E0F1
:1000A00030E040E05FE40E94490388238CF0C801FF
:1000B000B70120E030E040E05FE40E94C1010E940F
:1000C000A9039B01AC01205030404040504806C07D
:1000D000C801B7010E94A9039B01AC01B901CA0183
:1000E0001F910F91FF90EF900895A0E0B0E0EBE733
:1000F000F0E00C94D216DC012B01FA019C919230B5
:1001000008F439C1EB018881823008F433C194309E
:1001100069F4843009F02FC111969C91119789815F
:10012000981709F428C1A9E7B0E025C1843009F483
:1001300021C18230A9F4923009F01DC19A01AD01AC
:1001400088E0EA010990AE01E90109929E0181501F
:10015000C1F7E201898111969C918923818308C1AD
:10016000923009F407C112962D903C901397EB0141
:100170008A819B811496AD90BD90CD90DC901797AD
:10018000EC80FD800E811F819101281B390BB90184
:1001900037FF04C066277727621B730B6032710537
:1001A0000CF061C0121613066CF537014801062EDB
:1001B00004C096948794779467940A94D2F721E0C8
:1001C00030E040E050E004C0220F331F441F551FB1
:1001D0006A95D2F721503040404050402E213F21B7
:1001E00040235123211531054105510521F021E01E
:1001F00030E040E050E079018A01E628F72808293C
:1002000019293CC0232BD1F1260E371E350146019A
:10021000062E04C096948794779467940A94D2F734
:1002200021E030E040E050E004C0220F331F441FC3
:10023000551F6A95D2F721503040404050402A2146
:100240003B214C215D21211531054105510521F04E
:1002500021E030E040E050E059016A01A628B728CB
:10026000C828D9280BC0821593052CF01C01AA249C
:10027000BB24650103C0EE24FF24870111969C91E5
:10028000D20111968C91981709F445C0992339F041
:10029000A80197012A193B094C095D0906C0A6016E
:1002A00095012E193F09400B510B57FD08C01182D3
:1002B0003382228224833583468357831DC081E0A5
:1002C00081833382228288279927DC01821B930B4A
:1002D000A40BB50B84839583A683B7830DC0220F2F
:1002E000331F441F551F24833583468357838281E0
:1002F000938101979383828324813581468157813D
:10030000DA01C9010197A109B1098F5F9F4FAF4F72
:10031000BF4328F30BC0918333822282EA0CFB1C7B
:100320000C1D1D1DE482F5820683178383E0808304
:10033000248135814681578157FF1AC0C901AA27F8
:1003400097FDA095BA2F81709070A070B0705695EF
:10035000479537952795822B932BA42BB52B848318
:100360009583A683B7838281938101969383828349
:10037000DF0101C0D201CD01CDB7DEB7E2E10C94BF
:10038000EE16A0E2B0E0E7ECF1E00C94DE16698333
:100390007A838B839C832D833E834F835887E9E048
:1003A000EE2EF12CEC0EFD1ECE010196B7010E943F
:1003B000D2048E010F5E1F4FCE010596B8010E9438
:1003C000D2048A8991E089278A8BC701B801AE01DE
:1003D000475E5F4F0E9475000E94FD03A096E6E015
:1003E0000C94FA16A0E2B0E0E8EFF1E00C94DE160F
:1003F00069837A838B839C832D833E834F835887C5
:10040000F9E0EF2EF12CEC0EFD1ECE010196B701A6
:100410000E94D2048E010F5E1F4FCE010596B801D7
:100420000E94D204C701B801AE01475E5F4F0E942F
:1004300075000E94FD03A096E6E00C94FA16A0E277
:10044000B0E0E5E2F2E00C94D21669837A838B8304
:100450009C832D833E834F835887CE010196BE0136
:10046000675F7F4F0E94D204CE010596BE016F5E8A
:100470007F4F0E94D2049985923088F0898982301A
:10048000C8F0943019F4823051F404C0843029F457
:10049000923081F489E790E0C6C0923049F420E0C0
:1004A0009A858A89981321E02A87CE010996BBC0D4
:1004B000823049F420E09A858A89981321E02A8BBA
:1004C000CE014196B0C02D843E844F8458886D88FB
:1004D0007E888F88988CEE24FF248701AA24BB2471
:1004E000650140E050E060E070E0E0E0F0E0C10174
:1004F00081709070892BE9F0E60CF71C081D191D1E
:100500009A01AB012A0D3B1D4C1D5D1D80E090E062
:10051000A0E0B0E0E614F7040805190520F481E036
:1005200090E0A0E0B0E0BA01A901480F591F6A1F8E
:100530007B1FAA0CBB1CCC1CDD1C97FE08C081E0F5
:1005400090E0A0E0B0E0A82AB92ACA2ADB2A3196B6
:10055000E032F10549F0660C771C881C991C569412
:10056000479437942794C3CFFA85EA892B893C892D
:100570008B859C85280F391F2E5F3F4F17C0CA01FE
:1005800081709070892B61F016950795F794E79428
:1005900080E090E0A0E0B0E8E82AF92A0A2B1B2BC3
:1005A00076956795579547952F5F3F4F77FDE7CF36
:1005B0000CC0440F551F661F771F17FD4160EE0CDE
:1005C000FF1C001F111F21503040403090E05907A0
:1005D00090E0690790E4790760F32B8F3C8FDB0193
:1005E000CA018F779070A070B07080349105A1051A
:1005F000B10561F447FD0AC0E114F10401051105DC
:1006000029F0405C5F4F6F4F7F4F40781A8EFE1786
:1006100011F081E08A8F4D8F5E8F6F8F78A383E01A
:10062000898FCE0149960E94FD03A096E2E10C94C9
:10063000EE16A8E1B0E0EFE1F3E00C94DE1669837A
:100640007A838B839C832D833E834F83588789E0F5
:10065000E82EF12CEC0EFD1ECE010196B7010E9492
:10066000D2048E010F5E1F4FCE010596B8010E9485
:10067000D2048985823040F08989823028F0C70110
:10068000B8010E944A0501C08FEF6896E6E00C941D
:10069000FA16A8E1B0E0EFE4F3E00C94DE1669830B
:1006A0007A838B839C832D833E834F83588789E095
:1006B000E82EF12CEC0EFD1ECE010196B7010E9432
:1006C000D2048E010F5E1F4FCE010596B8010E9425
:1006D000D2048985823040F08989823028F0C701B0
:1006E000B8010E944A0501C08FEF6896E6E00C94BD
:1006F000FA16A8E1B0E0EFE7F3E00C94DE166983A8
:100700007A838B839C832D833E834F83588789E034
:10071000E82EF12CEC0EFD1ECE010196B7010E94D1
:10072000D2048E010F5E1F4FCE010596B8010E94C4
:10073000D2048985823040F08989823028F0C7014F
:10074000B8010E944A0501C081E06896E6E00C9479
:10075000FA16ACE0B0E0EFEAF3E00C94E21669833D
:100760007A838B839C83CE010196BE016B5F7F4FA2
:100770000E94D2048D81823061F1823050F1843048
:1007800021F48E81882351F12EC02F81388537FDC9
:1007900020C06E812F3131051CF06623F9F023C093
:1007A0008EE190E0821B930B29853A854B855C8511
:1007B00004C056954795379527958A95D2F76623B5
:1007C000B1F050954095309521953F4F4F4F5F4F79
:1007D0000EC020E030E040E050E009C02FEF3FEFD6
:1007E0004FEF5FE704C020E030E040E050E8B9019F
:1007F000CA012C96E2E00C94FE16DF92EF92FF9273
:100800000F931F93FC01E480F58006811781D1804E
:100810008081823048F480E090E0A0E1B0E0E82AF6
:10082000F92A0A2B1B2BA5C0843009F49FC0823003
:1008300021F4EE24FF24870105C0E114F104010531
:10084000110519F4E0E0F0E096C0628173819FEF3A
:10085000623879070CF05BC022E83FEF261B370BAC
:100860002A3131052CF020E030E040E050E02AC091
:10087000B801A701022E04C0769567955795479554
:100880000A94D2F781E090E0A0E0B0E004C0880FC5
:10089000991FAA1FBB1F2A95D2F70197A109B10979
:1008A0008E219F21A023B1230097A105B10521F03E
:1008B00081E090E0A0E0B0E09A01AB01282B392B59
:1008C0004A2B5B2BDA01C9018F779070A070B07052
:1008D00080349105A105B10539F427FF09C0205CDA
:1008E0003F4F4F4F5F4F04C0215C3F4F4F4F5F4F13
:1008F000E0E0F0E02030A0E03A07A0E04A07A0E402
:100900005A0710F0E1E0F0E079018A0127C0603871
:10091000710564F5FB01E158FF4FD801C7018F77DE
:100920009070A070B07080349105A105B10539F4C4
:10093000E7FE0DC080E490E0A0E0B0E004C08FE3EB
:1009400090E0A0E0B0E0E80EF91E0A1F1B1F17FFA1
:1009500005C016950795F794E794319687E01695AC
:100960000795F794E7948A95D1F705C0EE24FF2404
:100970008701EFEFF0E06E2F679566276795902F60
:100980009F77D794DD24D7948E2F8695492F462BB9
:10099000582F5D29B701CA011F910F91FF90EF9069
:1009A000DF900895FC01DB01408151812281622F9B
:1009B0006F7770E0221F2227221F9381892F880FD3
:1009C000822B282F30E0991F9927991F11969C930D
:1009D000119721153105A9F54115510561057105DD
:1009E00011F482E037C082E89FEF13969C938E93B8
:1009F00012979A01AB0167E0220F331F441F551F66
:100A00006A95D1F783E08C930DC0220F331F441FEA
:100A1000551F12968D919C911397019713969C9355
:100A20008E931297203080E0380780E0480780E4FA
:100A3000580758F314962D933D934D935C93179755
:100A400008952F3F310579F4411551056105710570
:100A500019F484E08C93089564FF03C081E08C93C3
:100A600012C01C9210C02F57304013963C932E9307
:100A7000129783E08C9387E0440F551F661F771F02
:100A80008A95D1F7706414964D935D936D937C9322
:100A9000179708951F93DC01FB019C91923008F495
:100AA00047C08081823008F443C0943051F41196DD
:100AB0001C91843099F58181682F70E0611B710968
:100AC0003FC0843021F0923031F48230B9F181811D
:100AD000882389F12DC011961C9111978230F1F075
:100AE00081811817D9F412962D913C911397828128
:100AF00093818217930794F028173907BCF0149656
:100B00008D919D910D90BC91A02D248135814681C0
:100B10005781281739074A075B0718F4112341F05A
:100B20000AC082179307A407B50740F4112319F0F0
:100B300061E070E005C06FEF7FEF02C060E070E041
:100B4000CB011F910895DF93CF93CDB7DEB72F97D9
:100B50000FB6F894DEBF0FBECDBF8F8784E060E094
:100B600042E00E94B10A84E061E042E00E94B10AE2
:100B700083E06F850E945E0C84E062E041E00E94A9
:100B8000B10A80E090E0A0E0B0E48B879C87AD875D
:100B9000BE876B857C858D859E8520E030E04AEFA1
:100BA00054E40E941F02DC01CB018F839887A98740
:100BB000BA876F81788589859A8520E030E040E8A2
:100BC0005FE30E94790388232CF481E090E09E8308
:100BD0008D833FC06F81788589859A8520E03FEFBE
:100BE0004FE757E40E94190318164CF56B857C8576
:100BF0008D859E8520E030E040E251E40E941F0296
:100C0000DC01CB01BC01CD010E944900DC01CB011C
:100C10009E838D830FC088EC90E09C838B838B81B7
:100C20009C810197F1F79C838B838D819E81019735
:100C30009E838D838D819E81009769F714C06F819B
:100C4000788589859A850E944900DC01CB019E83C5
:100C50008D838D819E819A83898389819A81019771
:100C6000F1F79A83898384E062E042E00E94B10A4E
:100C70002F960FB6F894DEBF0FBECDBFCF91DF9198
:100C80000895DF93CF93CDB7DEB72F970FB6F894C3
:100C9000DEBF0FBECDBF8F8784E060E041E00E94E1
:100CA000B10A84E061E042E00E94B10A83E06F850E
:100CB0000E945E0C84E062E041E00E94B10A80E0A4
:100CC00090E0A0E0B0E48B879C87AD87BE876B8502
:100CD0007C858D859E8520E030E04AEF54E40E94BB
:100CE0001F02DC01CB018F839887A987BA876F81A8
:100CF000788589859A8520E030E040E85FE30E94AE
:100D0000790388232CF481E090E09E838D833FC09B
:100D10006F81788589859A8520E03FEF4FE757E41A
:100D20000E94190318164CF56B857C858D859E8570
:100D300020E030E040E251E40E941F02DC01CB01E0
:100D4000BC01CD010E944900DC01CB019E838D8353
:100D50000FC088EC90E09C838B838B819C810197F2
:100D6000F1F79C838B838D819E8101979E838D8378
:100D70008D819E81009769F714C06F817885898580
:100D80009A850E944900DC01CB019E838D838D8171
:100D90009E819A83898389819A810197F1F79A8349
:100DA000898384E062E042E00E94B10A2F960FB688
:100DB000F894DEBF0FBECDBFCF91DF910895DF93D2
:100DC000CF93CDB7DEB72E970FB6F894DEBF0FBE28
:100DD000CDBF80E090E0A0E2B2E48B879C87AD8736
:100DE000BE876B857C858D859E8520E030E04AEF4F
:100DF00054E40E941F02DC01CB018F839887A987EE
:100E0000BA876F81788589859A8520E030E040E84F
:100E10005FE30E94790388232CF481E090E09E83B5
:100E20008D833FC06F81788589859A8520E03FEF6B
:100E30004FE757E40E94190318164CF56B857C8523
:100E40008D859E8520E030E040E251E40E941F0243
:100E5000DC01CB01BC01CD010E944900DC01CB01CA
:100E60009E838D830FC088EC90E09C838B838B8165
:100E70009C810197F1F79C838B838D819E810197E3
:100E80009E838D838D819E81009769F714C06F8149
:100E9000788589859A850E944900DC01CB019E8373
:100EA0008D838D819E819A83898389819A8101971F
:100EB000F1F79A8389838CE30E94A3058CE00E945A
:100EC000A30581E00E94A3052E960FB6F894DEBF1D
:100ED0000FBECDBFCF91DF910895DF93CF9300D0A8
:100EE000CDB7DEB79A8389830AC0E981FA81808110
:100EF0000E94410689819A8101969A838983E981BA
:100F0000FA818081882389F70F900F90CF91DF912C
:100F10000895DF93CF930F92CDB7DEB78983898190
:100F2000805D0E9441060F90CF91DF910895DF937D
:100F3000CF9300D0CDB7DEB789836A8389818823B8
:100F400029F48A8180580E94A30507C089818130D5
:100F500021F48A8180540E94A3050F900F90CF91B5
:100F6000DF910895EF92FF920F931F93DF93CF933A
:100F7000CDB7DEB72D970FB6F894DEBF0FBECDBF4D
:100F80006A877B878C879D871E821F8218861986B9
:100F90001A821B821C821D8219828A859B85AC85E0
:100FA000BD85BB238CF48A859B85AC85BD85B095BA
:100FB000A095909581959F4FAF4FBF4F8A879B8794
:100FC000AC87BD8781E089838A859B85AC85BD859B
:100FD0008A839B83AC83BD8336C08E819F81A88525
:100FE000B9852AE030E040E050E0BC01CD010E942C
:100FF00076167B018C018A819B81AC81BD812AE0C0
:1010000030E040E050E0BC01CD010E94B716DC01A9
:10101000CB018E0D9F1DA01FB11F8E839F83A887BC
:10102000B9878A819B81AC81BD812AE030E040E0B4
:1010300050E0BC01CD010E94B716DA01C9018A83D4
:101040009B83AC83BD838A819B81AC81BD81181653
:1010500019061A061B060CF28981813039F58DE2DA
:101060000E94410623C08E819F81A885B9852AE010
:1010700030E040E050E0BC01CD010E94B716DC0139
:10108000CB01805D0E9441068E819F81A885B98534
:101090002AE030E040E050E0BC01CD010E94B716EC
:1010A000DA01C9018E839F83A887B9878E819F81CA
:1010B000A885B985181619061A061B06A4F28A8592
:1010C0009B85AC85BD852AE030E040E050E0BC0166
:1010D000CD010E94B716DC01CB010097A105B10537
:1010E00019F480E30E9441062D960FB6F894DEBFF6
:1010F0000FBECDBFCF91DF911F910F91FF90EF9069
:101100000895DF93CF93CDB7DEB760970FB6F8940D
:10111000DEBF0FBECDBF6B877C878D879E874F87D5
:10112000288B19826B857C858D859E850E94490060
:10113000DC01CB018F839887A987BA8715C0898185
:101140008F5F89838F819885A985BA852AE030E0F1
:1011500040E050E0BC01CD010E949516DA01C901C2
:101160008F839887A987BA878F819885A985BA8543
:101170000097A105B10519F71A8213C06B857C850C
:101180008D859E8520E030E040E251E40E941F0200
:10119000DC01CB018B879C87AD87BE878A818F5FFF
:1011A0008A838A81823050F36B857C858D859E850C
:1011B0000E944900DC01CB018B839C83AD83BE83FD
:1011C0001A8239C098898981980F8A81292F281B12
:1011D000822F982F9E5F8F85692F0E9497078A81A3
:1011E000823019F18B819C81AD81BE812AE030E093
:1011F00040E050E0BC01CD010E949516DC01CB011E
:101200000E9489078B819C81AD81BE812AE030E0FC
:1012100040E050E0BC01CD010E949516DA01C90101
:101220008B839C83AD83BE8303C08EE20E94410604
:101230008A818F5F8A838A81282F30E08981882F75
:1012400090E00396281739070CF4BCCF60960FB6D0
:10125000F894DEBF0FBECDBFCF91DF910895DF932D
:10126000CF93CDB7DEB781E00E94A305CF91DF9188
:101270000895DF93CF93CDB7DEB7A7E2B0E0E7E202
:10128000F0E080818F778C93A7E2B0E0E7E2F0E0B6
:10129000808180648C93A7E2B0E0E7E2F0E0808197
:1012A0008F7D8C93A6E2B0E0E6E2F0E08081816081
:1012B0008C93A6E2B0E0E6E2F0E080818D7F8C9333
:1012C000A6E2B0E0E6E2F0E0808184608C93A6E2E2
:1012D000B0E0E6E2F0E0808180688C93CF91DF910E
:1012E0000895DF93CF9300D0CDB7DEB78983A7E20F
:1012F000B0E0E7E2F0E08081807E8C93A7E2B0E08E
:10130000E7E2F0E090818981892B8C93A6E2B0E03E
:10131000E6E2F0E0808180648C93E6E2F0E0808198
:10132000A6E2B0E0E6E2F0E0808180618C93E4E246
:10133000F0E0808191810F900F90CF91DF9108951F
:10134000DF93CF93CDB7DEB728970FB6F894DEBF03
:101350000FBECDBF8A836B834C8319828B8188300B
:1013600008F0F3C08C81823009F078C08A81282F80
:1013700030E038872F838F8198858230910561F125
:101380002F8138852330310534F48F819885813061
:10139000910569F060C02F8138852330310589F1CE
:1013A0008F8198858430910509F440C054C0AAE328
:1013B000B0E0EAE3F0E08081482F8B81282F30E015
:1013C00081E090E0022E02C0880F991F0A94E2F794
:1013D000809584238C93BBC0A7E3B0E0E7E3F0E003
:1013E0008081482F8B81282F30E081E090E0022E11
:1013F00002C0880F991F0A94E2F7809584238C938A
:10140000A6C0A4E3B0E0E4E3F0E08081482F8B8144
:10141000282F30E081E090E0022E02C0880F991F53
:101420000A94E2F7809584238C9391C0A1E3B0E005
:10143000E1E3F0E08081482F8B81282F30E081E0CC
:1014400090E0022E02C0880F991F0A94E2F780955F
:1014500084238C937CC081E0898379C08C81813026
:1014600009F075C08A81282F30E03E832D838D815D
:101470009E818230910551F12D813E8123303105CD
:1014800034F48D819E818130910561F05BC02D81A6
:101490003E812330310571F18D819E81843091052B
:1014A000E9F150C0AAE3B0E0EAE3F0E08081482F20
:1014B0008B81282F30E081E090E0022E02C0880F5F
:1014C000991F0A94E2F7842B8C9341C0A7E3B0E004
:1014D000E7E3F0E08081482F8B81282F30E081E026
:1014E00090E0022E02C0880F991F0A94E2F7842B25
:1014F0008C932DC0A4E3B0E0E4E3F0E08081482FBA
:101500008B81282F30E081E090E0022E02C0880F0E
:10151000991F0A94E2F7842B8C9319C0A1E3B0E0E1
:10152000E1E3F0E08081482F8B81282F30E081E0DB
:1015300090E0022E02C0880F991F0A94E2F7842BD4
:101540008C9305C081E0898302C081E08983898111
:1015500028960FB6F894DEBF0FBECDBFCF91DF91B6
:101560000895DF93CF93CDB7DEB728970FB6F894E1
:10157000DEBF0FBECDBF8A836B834C8319828B8104
:10158000883008F0F3C08C81823009F078C08A81FD
:10159000282F30E038872F838F81988582309105FE
:1015A00061F12F8138852330310534F48F8198859E
:1015B0008130910569F060C02F8138852330310575
:1015C00089F18F8198858430910509F440C054C019
:1015D000ABE3B0E0EBE3F0E08081482F8B81282F74
:1015E00030E081E090E0022E02C0880F991F0A943B
:1015F000E2F7809584238C93BBC0A8E3B0E0E8E3D6
:10160000F0E08081482F8B81282F30E081E090E04E
:10161000022E02C0880F991F0A94E2F78095842356
:101620008C93A6C0A5E3B0E0E5E3F0E08081482F0D
:101630008B81282F30E081E090E0022E02C0880FDD
:10164000991F0A94E2F7809584238C9391C0A2E3BA
:10165000B0E0E2E3F0E08081482F8B81282F30E07A
:1016600081E090E0022E02C0880F991F0A94E2F7F1
:10167000809584238C937CC081E0898379C08C81A0
:10168000813009F075C08A81282F30E03E832D8398
:101690008D819E818230910551F12D813E812330D3
:1016A000310534F48D819E818130910561F05BC0FC
:1016B0002D813E812330310571F18D819E818430F1
:1016C0009105E9F150C0ABE3B0E0EBE3F0E08081DD
:1016D000482F8B81282F30E081E090E0022E02C05D
:1016E000880F991F0A94E2F7842B8C9341C0A8E3DA
:1016F000B0E0E8E3F0E08081482F8B81282F30E0D4
:1017000081E090E0022E02C0880F991F0A94E2F750
:10171000842B8C932DC0A5E3B0E0E5E3F0E080815D
:10172000482F8B81282F30E081E090E0022E02C00C
:10173000880F991F0A94E2F7842B8C9319C0A2E3B7
:10174000B0E0E2E3F0E08081482F8B81282F30E089
:1017500081E090E0022E02C0880F991F0A94E2F700
:10176000842B8C9305C081E0898302C081E089834A
:10177000898128960FB6F894DEBF0FBECDBFCF91FA
:10178000DF910895DF93CF93CDB7DEB727970FB6DC
:10179000F894DEBF0FBECDBF8A836B835D834C831D
:1017A00019828C819D818130910509F47BC08B81E8
:1017B000883008F074C08A81282F30E03F832E8360
:1017C0004E815F814230510559F18E819F81833076
:1017D000910534F42E813F812130310569F05CC0E0
:1017E0004E815F814330510579F18E819F81843034
:1017F000910509F43DC050C0E9E3F0E08081282F55
:1018000030E08B81882F90E0A90102C05595479563
:101810008A95E2F7CA018170EC81FD81808344C022
:10182000E6E3F0E08081282F30E08B81882F90E084
:10183000A90102C0559547958A95E2F7CA018170C2
:10184000EC81FD81808330C0E3E3F0E08081282FCC
:1018500030E08B81882F90E0A90102C05595479513
:101860008A95E2F7CA018170EC81FD8180831CC0FA
:10187000E0E3F0E08081282F30E08B81882F90E03A
:10188000A90102C0559547958A95E2F7CA01817072
:10189000EC81FD81808308C081E0898305C081E0FF
:1018A000898302C082E08983898127960FB6F894E4
:1018B000DEBF0FBECDBFCF91DF910895DF93CF93F1
:1018C00000D000D00F92CDB7DEB78A836B83198228
:1018D0008A81282F30E03D832C838C819D8182304A
:1018E0009105D9F02C813D812330310534F48C8170
:1018F0009D818130910561F01FC02C813D81233095
:10190000310581F08C819D818430910581F014C076
:10191000EBE3F0E08B81808311C0E8E3F0E08B81A2
:1019200080830CC0E5E3F0E08B81808307C0E2E3B5
:10193000F0E08B81808302C081E0898381E089832C
:1019400089810F900F900F900F900F90CF91DF91A2
:101950000895DF93CF93CDB7DEB7EAE3F0E08EEFE3
:101960008083E7E3F0E08FEF8083E4E3F0E08FEF44
:101970008083E1E3F0E08FEF8083EBE3F0E010821F
:10198000E8E3F0E01082E5E3F0E01082E2E3F0E06B
:101990001082CF91DF910895DF93CF9300D000D0D4
:1019A0000F92CDB7DEB78A836B8319828B81883023
:1019B00008F073C08A81282F30E03D832C838C810E
:1019C0009D818230910551F12C813D81233031057B
:1019D00034F48C819D818130910561F05BC02C8154
:1019E0003D812330310571F18C819D8184309105D9
:1019F000E9F150C0ABE3B0E0EBE3F0E08081482FC9
:101A00008B81282F30E081E090E0022E02C0880F09
:101A1000991F0A94E2F784278C9341C0A8E3B0E0B1
:101A2000E8E3F0E08081482F8B81282F30E081E0CF
:101A300090E0022E02C0880F991F0A94E2F78427D3
:101A40008C932DC0A5E3B0E0E5E3F0E08081482F62
:101A50008B81282F30E081E090E0022E02C0880FB9
:101A6000991F0A94E2F784278C9319C0A2E3B0E08F
:101A7000E2E3F0E08081482F8B81282F30E081E085
:101A800090E0022E02C0880F991F0A94E2F7842783
:101A90008C9305C081E0898302C081E089838981BC
:101AA0000F900F900F900F900F90CF91DF910895AE
:101AB000DF93CF93CDB7DEB7A3E5B0E0E3E5F0E089
:101AC000808180648C93A3E5B0E0E3E5F0E0808161
:101AD00088608C93A3E5B0E0E3E5F0E080818F7E41
:101AE0008C93A3E5B0E0E3E5F0E0808180628C9325
:101AF000A3E5B0E0E3E5F0E080818E7F8C93A3E581
:101B0000B0E0E3E5F0E0808182608C93A3E5B0E093
:101B1000E3E5F0E080818B7F8C93CF91DF91089596
:101B2000DF93CF93CDB7DEB7A3E5B0E0E3E5F0E018
:101B300080818E7F8C93A3E5B0E0E3E5F0E08081C7
:101B40008D7F8C93A3E5B0E0E3E5F0E080818B7FAF
:101B50008C93CF91DF910895DF93CF930F92CDB700
:101B6000DEB78983ECE5F0E0898180830F90CF9127
:101B7000DF910895DF93CF930F92CDB7DEB78983BE
:101B8000E2E5F0E0898180830F90CF91DF910895A5
:101B9000DF93CF930F92CDB7DEB78983ECE5F0E00A
:101BA000898180830F90CF91DF910895DF93CF9348
:101BB00000D0CDB7DEB79A83898389819A819093CB
:101BC0008300809382000F900F90CF91DF91089552
:101BD000DF93CF9300D0CDB7DEB79A838983898115
:101BE0009A8190938500809384000F900F90CF91FD
:101BF000DF9108951F920F920FB60F9211242F9329
:101C00003F934F935F936F937F938F939F93AF9384
:101C1000BF93EF93FF93DF93CF93CDB7DEB7809160
:101C2000820090918300009729F0E0918200F0916A
:101C300083000995CF91DF91FF91EF91BF91AF9113
:101C40009F918F917F916F915F914F913F912F91D4
:101C50000F900FBE0F901F9018951F920F920FB606
:101C60000F9211242F933F934F935F936F937F9322
:101C70008F939F93AF93BF93EF93FF93DF93CF9394
:101C8000CDB7DEB78091840090918500009729F050
:101C9000E0918400F09185000995CF91DF91FF914B
:101CA000EF91BF91AF919F918F917F916F915F91D4
:101CB0004F913F912F910F900FBE0F901F9018954D
:101CC000DF93CF93CDB7DEB729970FB6F894DEBF79
:101CD0000FBECDBF89836A834B838981282F30E073
:101CE00039872887888599858230910509F479C0DC
:101CF000288539852330310554F4888599850097E6
:101D0000C9F0288539852130310589F1C0C0888521
:101D100099858430910509F481C02885398524305E
:101D200031050CF441C0888599858530910509F409
:101D300092C0ADC0AFE4B0E0EFE4F0E080818F7B13
:101D40008C93AFE4B0E0EFE4F0E080818F7E8C9381
:101D5000AFE4B0E0EFE4F0E080818F778C93AFE404
:101D6000B0E0EFE4F0E080818F7D8C9390C0AFE431
:101D7000B0E0EFE4F0E0808180648C93AFE4B0E009
:101D8000EFE4F0E0808180618C93AFE4B0E0EFE4B9
:101D9000F0E080818F778C93AFE4B0E0EFE4F0E087
:101DA00080818F7D8C9373C0AFE4B0E0EFE4F0E00E
:101DB000808180648C93AFE4B0E0EFE4F0E0808158
:101DC00080618C93AFE4B0E0EFE4F0E08081806864
:101DD0008C93AFE4B0E0EFE4F0E0808180628C931C
:101DE00056C0AFE4B0E0EFE4F0E080818F7B8C93ED
:101DF000AFE4B0E0EFE4F0E080818F7E8C93AFE45D
:101E0000B0E0EFE4F0E0808180688C93AFE4B0E074
:101E1000EFE4F0E0808180628C9339C0AFE4B0E001
:101E2000EFE4F0E080818F7B8C93AFE4B0E0EFE4EF
:101E3000F0E080818F7E8C93AFE4B0E0EFE4F0E0DF
:101E4000808180688C93AFE4B0E0EFE4F0E08081C3
:101E500080628C931CC0AFE4B0E0EFE4F0E08081DE
:101E600080648C93AFE4B0E0EFE4F0E080818061C7
:101E70008C93AFE4B0E0EFE4F0E0808180688C9375
:101E8000AFE4B0E0EFE4F0E0808180628C938A817F
:101E9000282F30E03F832E838E819F8182309105F1
:101EA00009F473C02E813F812330310554F48E81B3
:101EB0009F81009781F12E813F812130310571F0A2
:101EC0009DC08E819F818330910509F441C02E8190
:101ED0003F812430310509F475C090C0AFE4B0E013
:101EE000EFE4F0E080818E7F8C93AFE4B0E0EFE42C
:101EF000F0E080818D7F8C93AEE4B0E0EEE4F0E022
:101F0000808188608C93AEE4B0E0EEE4F0E0808104
:101F100080618C9373C0AFE4B0E0EFE4F0E08081C7
:101F20008E7F8C93AFE4B0E0EFE4F0E080818D7FB2
:101F30008C93AEE4B0E0EEE4F0E0808188608C93B6
:101F4000AEE4B0E0EEE4F0E080818F7E8C9356C08A
:101F5000AFE4B0E0EFE4F0E080818E7F8C93AFE4FB
:101F6000B0E0EFE4F0E0808182608C93AEE4B0E01A
:101F7000EEE4F0E0808188608C93AEE4B0E0EEE4C3
:101F8000F0E0808180618C9339C0AFE4B0E0EFE491
:101F9000F0E0808181608C93AFE4B0E0EFE4F0E0AA
:101FA000808182608C93AEE4B0E0EEE4F0E080816A
:101FB00088608C93AEE4B0E0EEE4F0E08081806174
:101FC0008C931CC0AFE4B0E0EFE4F0E080818E7F42
:101FD0008C93AFE4B0E0EFE4F0E080818D7F8C93F0
:101FE000AEE4B0E0EEE4F0E08081877F8C93AEE475
:101FF000B0E0EEE4F0E080818F7E8C938B81282F1F
:1020000030E03D832C838C819D818230910509F4E1
:1020100048C02C813D812330310554F48C819D8151
:10202000009799F02C813D812130310521F17AC052
:102030008C819D818330910509F449C02C813D81BB
:102040002430310509F459C06DC0AEE4B0E0EEE4CF
:10205000F0E0808181608C93AEE4B0E0EEE4F0E0EB
:1020600080818D7F8C93AEE4B0E0EEE4F0E080817F
:102070008B7F8C9357C0AEE4B0E0EEE4F0E080815B
:102080008E7F8C93AEE4B0E0EEE4F0E0808182607D
:102090008C93AEE4B0E0EEE4F0E080818B7F8C9333
:1020A00041C0AEE4B0E0EEE4F0E0808181608C936A
:1020B000AEE4B0E0EEE4F0E0808182608C93AEE4C8
:1020C000B0E0EEE4F0E080818B7F8C932BC0AEE437
:1020D000B0E0EEE4F0E080818E7F8C93AEE4B0E07F
:1020E000EEE4F0E080818D7F8C93AEE4B0E0EEE42E
:1020F000F0E0808184608C9315C0AEE4B0E0EEE443
:10210000F0E0808181608C93AEE4B0E0EEE4F0E03A
:1021100080818D7F8C93AEE4B0E0EEE4F0E08081CE
:1021200084608C9329960FB6F894DEBF0FBECDBFA6
:10213000CF91DF910895DF93CF9300D000D00F921D
:10214000CDB7DEB79A8389836B838B81282F30E0EC
:102150003D832C838C819D8181309105A9F02C8158
:102160003D81223031052CF48C819D81009799F0BE
:1021700026C02C813D8122303105D9F08C819D8192
:102180008330910579F01BC0E6E4F0E089819A8103
:102190009183808314C0EAE4F0E089819A8191837D
:1021A00080830DC0E6E4F0E089819A819183808389
:1021B00006C0EAE4F0E089819A81918380830F90E0
:1021C0000F900F900F900F90CF91DF910895DF93B4
:1021D000CF9300D0CDB7DEB79A838983EAE4F0E0ED
:1021E00089819A81918380830F900F90CF91DF91A5
:1021F0000895DF93CF9300D000D0CDB7DEB78983A9
:102200006A838A81282F30E03C832B838B819C81D9
:102210008230910509F448C02B813C81233031057F
:1022200054F48B819C81009799F02B813C81213063
:10223000310521F17AC08B819C818330910509F4AD
:1022400049C02B813C812430310509F459C06DC04F
:10225000AEE4B0E0EEE4F0E0808181608C93AEE427
:10226000B0E0EEE4F0E080818D7F8C93AEE4B0E0EE
:10227000EEE4F0E080818B7F8C9357C0AEE4B0E059
:10228000EEE4F0E080818E7F8C93AEE4B0E0EEE48B
:10229000F0E0808182608C93AEE4B0E0EEE4F0E0A8
:1022A00080818B7F8C9341C0AEE4B0E0EEE4F0E03F
:1022B000808181608C93AEE4B0E0EEE4F0E0808158
:1022C00082608C93AEE4B0E0EEE4F0E080818B7F3E
:1022D0008C932BC0AEE4B0E0EEE4F0E080818E7F22
:1022E0008C93AEE4B0E0EEE4F0E080818D7F8C93DF
:1022F000AEE4B0E0EEE4F0E0808184608C9315C041
:10230000AEE4B0E0EEE4F0E0808181608C93AEE476
:10231000B0E0EEE4F0E080818D7F8C93AEE4B0E03D
:10232000EEE4F0E0808184608C930F900F900F902A
:102330000F90CF91DF910895DF93CF9300D00F924C
:10234000CDB7DEB789838981282F30E03B832A838C
:102350008A819B818130910569F02A813B812230FD
:10236000310579F4AEE4B0E0EEE4F0E08081806421
:102370008C9307C0AEE4B0E0EEE4F0E080818F7BA8
:102380008C930F900F900F90CF91DF910895DF9372
:10239000CF93CDB7DEB7A9E5B0E0E9E5F0E0808105
:1023A00080628C93CF91DF910895DF93CF93CDB767
:1023B000DEB7A9E5B0E0E9E5F0E080818F7D8C93A0
:1023C000CF91DF910895DF93CF93CDB7DEB7E6E4E9
:1023D000F0E080819181CF91DF9108950F931F9359
:1023E000DF93CF93CDB7DEB7C856D0400FB6F89481
:1023F000DEBF0FBECDBFFE01ED59FF4F118210822F
:102400000E94A90C0E94DF06FE01E15AFF4F80E006
:1024100090E0AAEFB3E480839183A283B3838E011B
:10242000055A1F4FFE01E15AFF4F60817181828181
:10243000938120E030E04AEF54E40E941F02DC0167
:10244000CB01F80180839183A283B383FE01E55A17
:10245000FF4F608171818281938120E030E040E80C
:102460005FE30E947903882344F4FE01E75AFF4F9B
:1024700081E090E09183808364C0FE01E55AFF4FC4
:10248000608171818281938120E03FEF4FE757E4C3
:102490000E94190318160CF043C0FE01E15AFF4FC9
:1024A000608171818281938120E030E040E251E4DB
:1024B0000E941F02DC01CB018E01075A1F4FBC0195
:1024C000CD010E944900DC01CB01F801918380839A
:1024D0001FC0FE01E95AFF4F88EC90E09183808392
:1024E000FE01E95AFF4F808191810197F1F7FE01CA
:1024F000E95AFF4F91838083DE01A75ABF4FFE0147
:10250000E75AFF4F80819181019711969C938E939A
:10251000FE01E75AFF4F808191810097D1F627C0D5
:102520008E01075A1F4FFE01E55AFF4F60817181EE
:10253000828193810E944900DC01CB01F8019183E3
:102540008083DE01AB5ABF4FFE01E75AFF4F808107
:1025500091818D939C93FE01EB5AFF4F8081918175
:102560000197F1F7FE01EB5AFF4F918380830E94A0
:10257000390984E063E041E00E94600E80E29EE45D
:1025800061E00E949B1080E00E947109FE01E95900
:10259000FF4F91838083FE01E959FF4F0190F08145
:1025A000E02D84EC99E06CEB72E04CEA53E028E714
:1025B00030E08F010E941B16FE01EB59FF4F918303
:1025C0008083FE01EB59FF4F0190F081E02D84EBF9
:1025D00090E060E070E044EC59E02CEB32E08F01D9
:1025E0000E941B16FE01ED59FF4F9183808380E00E
:1025F00060E00E949707FE01EF5AFF4F80E090E0F5
:10260000A0E2B1E480839183A283B3838E01035B54
:102610001F4FFE01EF5AFF4F6081718182819381CC
:1026200020E030E04AEF54E40E941F02DC01CB01BD
:10263000F80180839183A283B383FE01E35BFF4FA4
:10264000608171818281938120E030E040E85FE326
:102650000E947903882344F4FE01E55BFF4F81E08B
:1026600090E09183808364C0FE01E35BFF4F608153
:1026700071818281938120E03FEF4FE757E40E9410
:10268000190318160CF043C0FE01EF5AFF4F60818A
:1026900071818281938120E030E040E251E40E9428
:1026A0001F02DC01CB018E01055B1F4FBC01CD0178
:1026B0000E944900DC01CB01F801918380831FC097
:1026C000FE01E75BFF4F88EC90E091838083FE0181
:1026D000E75BFF4F808191810197F1F7FE01E75B96
:1026E000FF4F91838083DE01A55BBF4FFE01E55B59
:1026F000FF4F80819181019711969C938E93FE01EB
:10270000E55BFF4F808191810097D1F627C08E0154
:10271000055B1F4FFE01E35BFF4F6081718182818A
:1027200093810E944900DC01CB01F80191838083F1
:10273000DE01A95BBF4FFE01E55BFF4F8081918108
:102740008D939C93FE01E95BFF4F808191810197FE
:10275000F1F7FE01E95BFF4F9183808380E690E013
:102760000E946D07FE01ED5BFF4F80E090E0A0E26C
:10277000B1E480839183A283B3838E01015C1F4FF8
:10278000FE01ED5BFF4F608171818281938120E0CA
:1027900030E04AEF54E40E941F02DC01CB01F80153
:1027A00080839183A283B383FE01FF966081718150
:1027B0008281938120E030E040E85FE30E9479036A
:1027C00088232CF481E090E09EAF8DAF46C0FE01DF
:1027D000FF96608171818281938120E03FEF4FE716
:1027E00057E40E941903181664F5FE01ED5BFF4FD4
:1027F000608171818281938120E030E040E251E488
:102800000E941F02DC01CB01BC01CD010E944900E6
:10281000DC01CB019EAF8DAF0FC088EC90E09CAF88
:102820008BAF8BAD9CAD0197F1F79CAF8BAF8DADAE
:102830009EAD01979EAF8DAF8DAD9EAD009769F7B0
:1028400016C0FE01FF9660817181828193810E9492
:102850004900DC01CB019EAF8DAF8DAD9EAD9AAF2F
:1028600089AF89AD9AAD0197F1F79AAF89AF80E052
:102870006DE00E94970780E090E0A0E2B1E48DABAC
:102880009EABAFABB8AF6DA97EA98FA998AD20E084
:1028900030E04AEF54E40E941F02DC01CB0189AB17
:1028A0009AABABABBCAB69A97AA98BA99CA920E078
:1028B00030E040E85FE30E94790388232CF481E054
:1028C00090E098AB8FA73FC069A97AA98BA99CA972
:1028D00020E03FEF4FE757E40E94190318164CF52C
:1028E0006DA97EA98FA998AD20E030E040E251E4C7
:1028F0000E941F02DC01CB01BC01CD010E944900F6
:10290000DC01CB0198AB8FA70FC088EC90E09EA7AD
:102910008DA78DA59EA50197F1F79EA78DA78FA5E1
:1029200098A9019798AB8FA78FA598A9009769F7E9
:1029300014C069A97AA98BA99CA90E944900DC014D
:10294000CB0198AB8FA78FA598A99CA78BA78BA528
:102950009CA50197F1F79CA78BA7FE01ED59FF4FAE
:1029600080819181CC01A0E0B0E0BC01CD010E944A
:10297000B20780E090E0A0E2B1E48FA398A7A9A7F6
:10298000BAA76FA178A589A59AA520E030E04AEF03
:1029900054E40E941F02DC01CB018BA39CA3ADA3D6
:1029A000BEA36BA17CA18DA19EA120E030E040E8F8
:1029B0005FE30E94790388232CF481E090E09AA3DE
:1029C00089A33FC06BA17CA18DA19EA120E03FEF18
:1029D0004FE757E40E94190318164CF56FA178A52C
:1029E00089A59AA520E030E040E251E40E941F0250
:1029F000DC01CB01BC01CD010E944900DC01CB010F
:102A00009AA389A30FC088EC90E098A38F8F8F8D35
:102A100098A10197F1F798A38F8F89A19AA10197A7
:102A20009AA389A389A19AA1009769F714C06BA101
:102A30007CA18DA19EA10E944900DC01CB019AA33B
:102A400089A389A19AA19E8F8D8F8D8D9E8D0197CF
:102A5000F1F79E8F8D8F8FE690E00E946D0780E0EA
:102A600090E0A0E2B1E4898F9A8FAB8FBC8F698D23
:102A70007A8D8B8D9C8D20E030E04AEF54E40E94EB
:102A80001F02DC01CB018D8B9E8BAF8BB88F6D89C4
:102A90007E898F89988D20E030E040E85FE30E94D6
:102AA000790388232CF481E090E09C8B8B8B3FC0D2
:102AB0006D897E898F89988D20E03FEF4FE757E43D
:102AC0000E94190318164CF5698D7A8D8B8D9C8D9B
:102AD00020E030E040E251E40E941F02DC01CB0123
:102AE000BC01CD010E944900DC01CB019C8B8B8B8A
:102AF0000FC088EC90E09A8B898B89899A8901971D
:102B0000F1F79A8B898B8B899C8901979C8B8B8B96
:102B10008B899C89009769F714C06D897E898F899C
:102B2000988D0E944900DC01CB019C8B8B8B8B899B
:102B30009C89988B8F878F8598890197F1F7988B5F
:102B40008F87FE01EB59FF4F808191810E94E71032
:102B500080E090E0AAEFB3E48B879C87AD87BE87C7
:102B60006B857C858D859E8520E030E04AEF54E4BE
:102B70000E941F02DC01CB018F839887A987BA8747
:102B80006F81788589859A8520E030E040E85FE3B1
:102B90000E94790388232CF481E090E09E838D834A
:102BA0003FC06F81788589859A8520E03FEF4FE7A8
:102BB00057E40E94190318164CF56B857C858D85AA
:102BC0009E8520E030E040E251E40E941F02DC01DB
:102BD000CB01BC01CD010E944900DC01CB019E83E9
:102BE0008D830FC088EC90E09C838B838B819C81CC
:102BF0000197F1F79C838B838D819E8101979E8342
:102C00008D838D819E81009769F7BDCC6F8178851A
:102C100089859A850E944900DC01CB019E838D83C2
:102C20008D819E819A83898389819A810197F1F7A9
:102C30009A838983A8CCEF92FF920F931F93DF931F
:102C4000CF93CDB7DEB72C970FB6F894DEBF0FBE8B
:102C5000CDBF9C838B837E836D8358874F833A8758
:102C600029871C870B872B813C818D819E81A9013F
:102C7000481B590BCA017C0100E010E02B853C8504
:102C800089859A85A901481B590BCA019C0140E01E
:102C900050E0C801B7010E9476167B018C012F819C
:102CA000388589859A85A901481B590BCA019C0161
:102CB00040E050E0C801B7010E949516DA01C90151
:102CC0009C018D819E81820F931F9A8389838981C4
:102CD0009A812C960FB6F894DEBF0FBECDBFCF9170
:102CE000DF911F910F91FF90EF900895629FD001A7
:102CF000739FF001829FE00DF11D649FE00DF11DB7
:102D0000929FF00D839FF00D749FF00D659FF00D65
:102D10009927729FB00DE11DF91F639FB00DE11D52
:102D2000F91FBD01CF0111240895A1E21A2EAA1B9B
:102D3000BB1BFD010DC0AA1FBB1FEE1FFF1FA2176B
:102D4000B307E407F50720F0A21BB30BE40BF50B68
:102D5000661F771F881F991F1A9469F760957095F1
:102D6000809590959B01AC01BD01CF01089597FB23
:102D7000092E05260ED057FD04D0D7DF0AD0001C3F
:102D800038F450954095309521953F4F4F4F5F4F08
:102D90000895F6F790958095709561957F4F8F4FC8
:102DA0009F4F08952F923F924F925F926F927F9222
:102DB0008F929F92AF92BF92CF92DF92EF92FF924B
:102DC0000F931F93CF93DF93CDB7DEB7CA1BDB0BF7
:102DD0000FB6F894DEBF0FBECDBF09942A8839889C
:102DE00048885F846E847D848C849B84AA84B984A3
:102DF000C884DF80EE80FD800C811B81AA81B981AF
:102E0000CE0FD11D0FB6F894DEBF0FBECDBFED01C2
:062E10000895F894FFCFC5
:102E1600536572766F20416E676C65203A200020FC
:102E2600202020202020202000000000000000009C
:022E360000009A
:00000001FF
